S017000068617A6966656C616461746B6F7A6F732E7333372A
S113000000100020590600009521000095210000F1
S11300109521000095210000952100009521000004
S113002095210000952100009521000095210000F4
S113003095210000952100009521000095210000E4
S113004095210000952100009521000095210000D4
S113005095210000952100009521000095210000C4
S113006095210000952100009521000095210000B4
S113007095210000952100009521000095210000A4
S113008095210000550200009521000095210000F3
S11300909521000095210000952100009521000084
S11300A09521000095210000952100009521000074
S11300B09521000095210000751D00009521000088
S11300C09521000095210000952100009521000054
S11300D09521000095210000952100000348044B60
S11300E0834202D0034B03B1184770475C100020D1
S11300F05C100020000000000548064B1B1AD90FB5
S113010001EBA301491002D0034B03B11847704718
S11301105C1000205C1000200000000010B5064CAC
S1130120237843B9FFF7DAFF044B13B10448AFF364
S113013000800123237010BDDE10002000000000A9
S11301404827000008B5054B1BB105490548AFF326
S11301500080BDE80840FFF7CFBF00BF00000000EB
S11301605C10002048270000A3F5803A704700BFC8
S1130170174B002B08BF134B9D46FFF7F5FF0021DB
S11301808B460F461348144A121A02F045F80E4BD8
S1130190002B00D098470D4B002B00D0984700202F
S11301A0002104000D000D48002802D00C48AFF3D4
S11301B0008001F0ADFF2000290001F0D0FF01F024
S11301C095FF00BF000008000000000000000000D0
S11301D0001000205C100020F0100020000000003F
S11301E000000000F8B5174C17482368013323605A
S11301F002F01AF82322236893FBF2F102FB113375
S1130200D3B9124D12492B680F461A46DFF838E06D
S113021003F1080C904294BF20261EF802600132BC
S1130220624501F8016BF5D100220133834228BFF6
S113023013463A722B6022600548BDE8F84000F08E
S11302405FB900BF741000208022000078100020E5
S1130250DF10002070B51F49CB6C0A6C1340DB0320
S11302600FD54FF4803300224B641B4B1B4D1C4EA7
S11302701C4C1A701A780F2A13D91B4B1B6803B134
S11302809847144BDA6C196C0A4012F4706F1FD043
S11302904FF470625A64154B1B68CBB1BDE87040D3
S11302A018471A78AA5C72B1886A1A78D2B246F8EA
S11302B022001A78D2B254F8222082423EBF1A7821
S11302C0D2B244F822001A780132D2B21A70D1E7BD
S11302D070BD00BF00C00840E81000209D2200004F
S11302E08410002000100020801000207C100020CA
S11302F0024A536E0342FCD1704700BF00A008407D
S113030010B50022284C1046214601F0ABF92146D5
S11303100022012001F0A6F921460022022001F06A
S1130320A1F921460022032001F09CF92146002274
S1130330042001F097F921460022052001F092F9EA
S113034021460022062001F08DF9214600220720D3
S113035001F088F90022FF21104601F0DFF90022A4
S1130360FF21012001F0DAF90022FF21022001F02F
S1130370D5F90022FF21032001F0D0F90022FF214A
S1130380042001F0CBF90022FF21052001F0C6F979
S11303900022FF21062001F0C1F9BDE8104000222F
S11303A0FF21072001F0BAB900F00FF010B5274C77
S11303B000220720264901F055F921460022062093
S11303C001F050F921460022052001F04BF92146A5
S11303D00022042001F046F921460022032001F006
S11303E041F921460022022001F03CF92146002275
S11303F0012001F037F900224FF02041104601F0AE
S113040031F907210022084601F088F9002207216A
S1130410062001F083F900220721052001F07EF96E
S113042000220721042001F079F90022072103208A
S113043001F074F900220721022001F06FF9BDE8F0
S1130440104000220721012001F068B900E00FF0FC
S113045000E00F5010B501210446224800F060FC72
S11304600321214800F016FF4021204800F03CFB06
S1130470012000F057FE01211D4800F051FC1D4BE6
S11304801D489A6A00229A6201F012F8012108209C
S113049001F044F80121102001F040F801218020EE
S11304A001F03CF801214FF4807001F037F801218C
S11304B04FF4007001F032F864B14FF4402001F0C1
S11304C081F94FF4803001F01BF80C4AD36F43F0EC
S11304D00803D367FFF714FFBDE810404FF0FF3067
S11304E0FFF706BFD0433E0002001E0080002A0032
S11304F000362C0000A00840B022000000800C4010
S11305002DE9F84F814601F08FFE80464FF0FF3011
S1130510FFF7EEFE0122164B00241A66FFF746FF92
S1130520144FDFF854A0A045D8BF20233E464FF017
S11305300005C8BF19F80430203B3AF813B04BFA51
S113054005F3DB0704D50122B17B307800F0F2FF1C
S113055001350E2D06F10106F1D10134072C07F106
S11305601C07E0D10022024B1A66BDE8F88F00BFD9
S113057000A008407C230000C422000010B500F055
S11305805BFE01210F4800F0CBFB01220020114645
S113059000F026FE01220C4C1146A36A002023F42D
S11305A0803323F0030343F00203A36200F018FE38
S11305B0A36A002023F4801323F00C0343F0080300
S11305C0A36210BDD0433E0000800C4013B501224D
S11305D0164B1A6401F05CF9044601A801F030F9E5
S11305E00F2C12D99DF80430022B0ED99DF805204A
S11305F0022A01D1042B08D00D4AD2F8C03023F0CE
S1130600500343F01003C2F8C03001F077F900F052
S11306101DF801F0D8FD01F05BF9FFF7AFFF01F021
S113062047F902B0BDE8104000F004B800000C40E7
S113063000800C4008B50121034800F071FBBDE8BF
S1130640084001F096BD00BF00D20400012101481A
S113065000F066BB00D2040008B500F0B9F8124BF4
S113066012498B4212D30020114B12498B4218D3EA
S1130670FFF77EFD186850F82240586840F8224081
S1130680013298688242F5D30C33EAE70022F8E796
S11306901C6844F8220001325C68A242F8D3083393
S11306A0E4E70022F8E700BF502700005C270000C1
S11306B05C2700005C27000000487047006CDC02E7
S11306C0254AD36A03F47053B3F5805F3AD0B3F587
S11306D0005F04D0B3F5006F0BD1204B00E0204B3A
S11306E01B681D4A1068C0F382300130B3FBF0F080
S11306F07047D36803F4E063B3F5407F25D008D88E
S1130700B3F5807F0ED0B3F5007F20D0A3B10023D2
S1130710E7E7B3F5806F1CD0B3F5A06F114B18BF9A
S11307200023DEE7104B114AD3F8FC10104BB1F153
S1130730985F28BF1346D4E70B4B0E4AD3F8FC103E
S11307400D4BF4E74FF40043CBE70C4BC9E70C4BDC
S1130750C7E70C4BC5E700BF00800C4048100020E1
S113076044100020003FAB010081E00F40B564005D
S1130770C0CF6A00804F120040420F00809FD50016
S1130780C0D8A700406F400108B5FFF799FF044B9C
S11307905B6803F00F03D840024B186008BD00BF2C
S11307A000800C4040100020014B1868704700BFC7
S11307B048100020044B1860044BDB6A1B0501D56C
S11307C0FFF7E2BF704700BF4810002000800C40D4
S11307D0014A024B9A6070470000000000ED00E0FF
S11307E0014B1868704700BF4410002010B5431E29
S11307F0B3F5004F044604D2B4FA84F0C0F11F00EC
S113080010BD40F69351034801F0CBFC002CF3D10A
S11308102020F3E77A25000008B5194B5B6903F43F
S1130820E063B3F5407F16D00DD8B3F5807F20D0B8
S1130830B3F5007F18D0F3B141F29C61114801F087
S1130840B0FC00230EE0B3F5C06F16D0B3F5E06F33
S1130850F2D10D4B06E001F01BF80C4B0C4A1228A8
S113086088BF1346184608BD01F012F8094B0A4A1E
S1130870F5E70A4BF6E70A4BF4E70A4BF2E700BF49
S113088000800C40CC250000406F400140420F0026
S1130890804F1200C0CF6A0040B56400C0D8A700E2
S11308A0809FD500003FAB01034B5A6DD20702D4A1
S11308B01A6D1042FCD1704700800C4008B500F05E
S11308C0EFFF4A2805D0792803D0482818D11048CA
S11308D015E010490E48D1F8E030D1F8E820D1F8FD
S11308E0EC101B0203F47C53C1F3031102F0F00279
S11308F00B431343084AB3F5017F28BF104608BDD4
S1130900064841F2186101F04CFC0020F7E700BFF3
S11309100048E80100FF0FE000366E01CC2500001E
S113092010B50446FFF7CAFFA04207D2FFF7C6FF7F
S1130930B4EB400F0ED80122012301E0002213463C
S113094005498B6705494B6823F4807343EA022306
S11309504B6010BD0222EFE70000904300800C4082
S1130960144B5A686FF0130302F00702134113F09B
S1130970010F114B09D1984217D8104B104A034468
S113098093422CBF0023012308E098420FD80B4B5D
S11309900B4A0344934234BF0323022305494A68A4
S11309A022F0070213434B6070470423F6E7052344
S11309B0F4E700BF00000C400048E801FFDB0BFF38
S11309C00024F40038B541F67133064CE56BE3635B
S11309D0FFF772FEADB2FFF7C3FF0DB10023E3636F
S11309E038BD00BF00000C4038B541F67133054CEA
S11309F0E56BE363ADB2FFF7B3FF0DB10023E3632F
S1130A0038BD00BF00000C4008B5C0F30313013B20
S1130A100C2B5AD8DFE803F00759590D5959141D06
S1130A204759595917002A4B1868C0F382300130CE
S1130A3008BD274B9B6803F00F0301209840F7E79C
S1130A40234B5B68F7E7224B5B68C3F30023013356
S1130A50F3E7204B984220D00DD81F4B984212D078
S1130A6003F58223984213D041F62F411B4801F02D
S1130A7098FB0120DCE71A4B9842F5D1144B9B6E8E
S1130A8003F00303D9E7124B9B6EC3F30313D4E7BC
S1130A900F4B9B6EC3F30323CFE70D4B9B6EC3F346
S1130AA001330433C9E70F4B984206D003F50433EE
S1130AB0984205D041F64841D8E7054B1B6FDFE764
S1130AC0034B1B6FC3F30113B7E741F64F41CDE767
S1130AD000800C4080002A0080161200CC25000003
S1130AE080062E0090071A0010B5C0F30313013BD3
S1130AF00C460C2B00F20581DFE813F00D00030116
S1130B00030125000301030144006700D100030130
S1130B100301030138004C1E072C04D941F67C4123
S1130B20794801F03EFBFFF74DFF784A136823F440
S1130B30E03343EA84341460FFF726FEBDE8104036
S1130B400021FFF751BF4B1EB3F5007F04D341F6DC
S1130B508F416D4801F025FB2046FFF747FE6B4AA5
S1130B60936823F00F030343936010BD0846FFF717
S1130B703DFE664A0138536823F4807343EA002338
S1130B805360F2E74B1EB3F5007F04D341F6A54151
S1130B905D4801F006FBFFF715FFFFF7F5FDB0FB1D
S1130BA0F4F0FFF7BDFE2046FFF720FE574A5368D6
S1130BB023F00F0303435360FFF7E6FD0021FFF723
S1130BC013FFBDE81040FFF7ABBE514B98424FD026
S1130BD00DD8504B984220D003F58223984232D04E
S1130BE041F6FE41BDE81040474801F0DABA4A4BED
S1130BF09842F5D1082904D941F6F041424801F060
S1130C00D0FA0420FFF750FE2046FFF7EFFD3F4ADD
S1130C10936E23F00303034313E0B1F5004F04D9AB
S1130C2041F6C341384801F0BCFA0420FFF73CFE0A
S1130C302046FFF7DBFD354A936E23F0F00343EAC9
S1130C400013936691E7B1F5004F04D941F6D14101
S1130C502D4801F0A6FA0420FFF726FE2046FFF7F0
S1130C60C5FD2A4A936E23F4706343EA0023E8E740
S1130C70A1F11003702B04D94FF4E751224801F07D
S1130C8090FA0420FFF710FE2046FFF7AFFD1F4A3D
S1130C900438936E23F4405343EA0033D1E71F4BE7
S1130CA0984206D003F50433984216D041F62451F5
S1130CB098E7082904D941F60751134801F071FA5D
S1130CC04020FFF7F1FD2046FFF790FD0F4A136F18
S1130CD023F003030343136747E7082904D941F6C4
S1130CE01651094801F05DFA4020FFF7DDFD20466A
S1130CF0FFF77CFD054A136F23F0300343EA00132A
S1130D00E9E741F62A516DE7CC25000000800C404C
S1130D1080002A008016120080062E0090071A0018
S1130D2070B5C0F30323013B04460E46092B16D8C5
S1130D30DFE803F0302C051515272015151CFFF7E7
S1130D4023FDFFF7EDFD154DC4F3043405F14245D1
S1130D5005F5801504EBC504A400266070BD41F6BA
S1130D60B051BDE870400E4801F01BBA0D4DC0F300
S1130D700434EBE7C0F3043410200B4DFFF794FD6B
S1130D80E4E7C0F30434094D0120F7E7084DC0F34C
S1130D900434DBE7074DC0F30434D7E740800C404C
S1130DA0CC25000078800C4060800C4058800C40BA
S1130DB044800C4008800C4008B500F00F00013856
S1130DC006284CD8DFE800F00414254B4B333B00D5
S1130DD0294BDB6A03F47053B3F5805F4AD0B3F553
S1130DE0005F45D0B3F5006F0CBF0420052008BD9B
S1130DF0214B986A00F003000228F8D0032835D06C
S1130E00012837D09B6A13F4803F0CBF01200A20CD
S1130E10EDE7194A936A03F00C03082B28D00C2B36
S1130E2024D0042B26D0936A13F4801FEDE7124BD1
S1130E301B6813F0805F0CBF07200920D7E70E4B17
S1130E40DB6A03F46033B3F5803F11D0B3F5003FA0
S1130E5010D0B3F5004F0CBF09200120C7E70748A5
S1130E6042F2013101F09DF90020C0E70620BEE7FF
S1130E700220BCE70320BAE700800C40CC25000028
S1130E8010B52B4B0446984223D02A4B984213D0DA
S1130E9041F61311284801F084F92046FFF78CFF2E
S1130EA0044641F64211244801F07BF9032C37D85B
S1130EB0DFE804F03B1C2024FFF77EFF1F4A936AFF
S1130EC0C3F38103013B022B27D8DFE803F00F13A0
S1130ED01700FFF771FF194A936A03F00303013BFC
S1130EE0022B12D8DFE803F002060A00BDE8104026
S1130EF001F051B9BDE81040FFF772BCFFF744FCA4
S1130F000F4B9B6F0133D84010BD936A1022D3401E
S1130F100BD0BDE8104001F041B9936A1422F6E702
S1130F2041F66D11044801F03CF90020ECE700BFE4
S1130F3002001E0003002000CC25000000800C40AD
S1130F400000904338B500F47813B3F5E01F05466C
S1130F5000F087802ED8B3F5801F00F0918018D858
S1130F60B3F5802F50D006D87BB1B3F5003F53D0F2
S1130F704FF4F7517FE0B3F5602FF9D15048FFF7F4
S1130F801BFF07287CD0092873D1BDE83840FFF740
S1130F9097BBB3F5B01F43D0B3F5D01F5BD0B3F507
S1130FA0901FE5D14748FFF76BFF474B9B6EC3F398
S1130FB003132FE0B3F5281F3AD00DD8B3F5001F63
S1130FC047D0B3F5181F5FD0B3F5F01FD0D13D481B
S1130FD0BDE83840FFF754BFB3F5381F31D0B3F53F
S1130FE0781F63D0B3F5301FC2D13648FFF748FFEE
S1130FF0354A936EC3F30133D840D36F03F007032C
S11310000133B0FBF3F038BDFFF75AFB2E4B9B685E
S113101003F00F03D840F6E7BDE83840FFF7B4BB50
S11310202848FFF72DFF284B9B6EC3F30323F1E7FA
S11310302448FFF725FF244B9B6EC3F3013304338D
S1131040E8E72048FFF71CFF1F4B9B6E03F00303E8
S1131050E0E71E48BCE71D48FFF712FF1A4B1B6F61
S1131060F4E71A48FFF70CFF174B1B6FC3F3011388
S1131070D0E741F2D661164801F093F80020C2E7A8
S1131080BDE83840FFF7C8BB1248FFF795FE0328B8
S113109008D009283FF479AF0228EFD1BDE83840E1
S11310A0FFF79EBBBDE8384001F075B8FFF76CFB55
S11310B004462846FFF7A8FCB4FBF0F0A3E700BF02
S11310C006000E0002001E0000800C4003002000F9
S11310D0CC2500000723260010B504461120FFF795
S11310E06BFE042804D142F673210C4801F059F830
S11310F008230B4A13621368E17823F4D16323F0C5
S113110007030B43617843EA4123217843EA8103CF
S1131110A17843EAC113136010BD00BFCC250000C1
S113112000800C4010B58028044604D942F60D31E5
S1131130074801F036F8074A936D1B0706D4D36FAE
S113114004F0070423F007032343D36710BD00BF53
S1131150CC25000000800C4070B505461120FFF737
S11311602BFE022804D142F62B31144801F019F861
S11311704FF40073124E3362AC786B78E40244EAA5
S113118083442B78C3F3400344EA433401F00BF85F
S113119033685C4024F07F4424F4730424F447440B
S11311A024F0FF045C40346001F001F82B78054A18
S11311B003F00103C2F8A03470BD00BFCC250000C9
S11311C000800C4000008C43014B1880704700BF26
S11311D04E100020014B1880704700BF4C100020B7
S11311E030B404280BD80E4B1C5C0E4B33F8105053
S11311F00D4B33F810000D4B39B918620DE042F66F
S1131200F93130BC0A4800F0CCBF1D622AB1094B49
S113121023449B001A68002AFCD030BC704700BFEE
S11312201026000006260000FC25000000800C406B
S1131230CC2500006001E41008B5FFF73FFB013046
S1131240FFF76EFBFFF7B0FA104A114B9842136890
S11312504FF0020096BF23F0600343F0600343F0B5
S11312602003136001221146FFF7BAFFFFF7AAFB20
S11312700222064B5A62FFF787FAFFF751FBFFF78A
S113128083FABDE808400021FFF7AEBB00800C40A4
S11312900048E80110B500F00F04631E062B00F2AD
S11312A0CD80DFE803F0044E4ECBCB91A30002398E
S11312B008293DD8DFE801F03F42052E3C3C3C3C88
S11312C03500FFF7FBFA0130FFF72AFBFFF76CFA52
S11312D05C4B5D4A9842136817D943F060030220BF
S11312E00446136001221146FFF77AFFFFF76AFBF9
S11312F0554B5C62FFF748FA0446FFF711FB2046A2
S1131300BDE810400021FFF76FBB23F0600343F0FA
S11313102003E4E7FFF7D2FA0130FFF701FB0320D3
S1131320E0E742F22F51BDE81040484800F039BFD1
S113133042F23451F7E700200424D3E701200324C8
S1131340D0E7013909292DD8DFE801F02F05192C40
S11313502C212C2C2C32012200201146FFF740FFB7
S1131360002302213848022C826A23D122F48032DD
S113137022F003020A4342EA0342826210BD0122C0
S113138011461046FFF72CFF00230121EAE7FFF77F
S1131390FBF9FFF7C5FA01222D4B0321C3F81028EE
S11313A00023DFE742F2DD51BDE700230021D9E746
S11313B00123FBE71B0522F4801243EA810322F098
S11313C00C0213438362D9E7072904D0092908D002
S11313D042F23861A7E71C4A136823F08053136074
S11313E0CCE7194A136843F08053F8E703290FD078
S11313F0092919D002291ED1012200201146FFF724
S1131400EFFE4022104B5A62DA6AD003FCD5B5E7EE
S1131410012211461046FFF7E3FE60220A4B5A628E
S1131420DA6A9103FCD5A9E72022074B5A62DA6AEB
S11314301204FCD5A2E742F2776174E742F26D71BF
S113144071E700BF0048E80100800C40CC25000093
S11314500000904310B50479837809492343047844
S1131460CA6A43EA0443C478407822F4803243EAE7
S1131470440322F01F0243EA00131343CB6210BD5E
S113148000600C4070B51F2905460C46164603D96A
S11314909121064800F085FE05F1424000F58010D8
S11314A004EBC004A400266070BD00BF1526000034
S11314B070B5114D04466E6818B946210F4800F006
S11314C070FE2B68E26823F001032B60636813430A
S11314D026F4830222F01F021343227A1343627A12
S11314E01A43238A13436B6023781BB12B6843F0A0
S11314F001032B6070BD00BF00A0084067260000F8
S1131500054AB0F5803F536823F4803308BF43F4A1
S113151080335360704700BF00A00840044B9A68B2
S113152011B102439A60704722EA0002FAE700BF51
S113153000A0084037B5072805460C4613DD40F2E5
S11315402721374800F02DFE272C04DD40F22E2100
S1131550334800F026FE4FF42671314803B0BDE84D
S1131560304000F01EBE27290EDD40F22E212C480B
S1131570019200F016FE019A072DECD8DFE805F081
S1131580141C242C343C444C0728E4D8DFE800F035
S113159004101820283038401F2905DC214803B0E6
S11315A0BDE83040FFF76EBF1F48A4F12001F6E705
S11315B01F2901DC1D48F2E71D48A4F12001EEE7D4
S11315C01F2901DC1B48EAE71B48A4F12001E6E7D8
S11315D01F2901DC1948E2E71948A4F12001DEE7DC
S11315E01F2901DC1748DAE71748A4F12001D6E7E0
S11315F01F2901DC1548D2E71548A4F12001CEE7E4
S11316001F2901DC1348CAE71348A4F12001C6E7E7
S11316101F2901DC1148C2E71148A4F12001BEE7EB
S11316206726000040A0084050A0084044A008409D
S113163054A0084048A0084058A008404CA00840C6
S11316405CA00840CCA00840B4A00840D0A008404A
S1131650B8A00840D4A00840BCA00840D8A00840C6
S1131660C0A0084008B507280BDD40F20331294823
S113167000F097FDBDE8084040F24331254800F0F2
S113168090BD0728F6D8DFE800F0040B12192029D2
S1131690323B214B186C42400A4042401A6408BD58
S11316A01D4B586C42400A4042405A64F7E71A4BBB
S11316B0986C42400A4042409A64F0E7164BD86C5A
S11316C042400A404240DA64E9E7134BD3F8CC00C5
S11316D042400A404240C3F8CC20E0E70E4BD3F826
S11316E0D00042400A404240C3F8D020D7E70A4B1A
S11316F0D3F8D40042400A404240C3F8D420CEE795
S1131700054BD3F8D80042400A404240C3F8D820E1
S1131710C5E700BF6726000000A00840072804DDD5
S11317204FF45771254800F03CBD072844D8DFE842
S113173000F0040B12192029323B214B186D424052
S11317400A4042401A6570471D4B586D42400A409A
S113175042405A6570471A4B986D42400A404240D5
S11317609A657047164BD86D42400A404240DA658C
S11317707047134BD3F8B40042400A404240C3F8C8
S1131780B42070470E4BD3F8B80042400A404240A0
S1131790C3F8B82070470A4BD3F8BC0042400A4053
S11317A04240C3F8BC207047054BD3F8C000424008
S11317B00A404240C3F8C020704700BF67260000BB
S11317C000A00840034A536823F4E0130343536022
S11317D0704700BF00A0084038B5012805460C46F4
S11317E00CD9A4210C4800F0DCFCB4F1807F12D3A6
S11317F0BDE83840A921084800F0D3BCB1F1807F8E
S113180003D3A921044800F0CCFC044B044A012D65
S113181018BF13461C6038BD962600000C00084013
S113182008000840427803780AB143F00203827842
S11318300AB143F00403014A1360704700000840F2
S113184010B5044618B957210F4800F0AAFC0F4AF6
S1131850D2F8E430D2F8E0109B0003F03C03C1F36B
S113186081110B43A370D2F8E03003F03F0363709F
S1131870D2F8E830D2F8EC2003F0F003C2F30312FC
S11318801343237010BD00BFC526000000FF0FE006
S1131890024BD3F8FC00000E704700BF0081E00F3C
S11318A0024BD3F8FC00C0F3074070470081E00FFF
S11318B007B5064B18681B79009068468DF804300C
S11318C0FFF7C8FD002003B05DF804FBF726000015
S11318D007B5084B186801900748FEF76BFF01A88D
S11318E0FFF7FAFB3220FFF775FC002003B05DF828
S11318F004FB00BFFC260000006CDC0210B56FF096
S11319000403A0210A480B4C13F0800F03F10102D9
S113191007D12344272A83F800131346F4D1002067
S113192010BD03F00F03043B034419761346EBE7A1
S113193000ED00E000E100E030B50E4C41612368A9
S11319408BB9206083600DE0891A9A681D46416155
S11319506AB113465A698A42F6D935B1A860521A57
S113196083605A6130BD0025F4E72060F7E7986092
S11319708260F7E7CC10002038B500F077F9002535
S1131980084B094C1A682368C31A2AB123B1516958
S1131990994203D3C91A5161206038BD55615B1A5D
S11319A09268F2E7CC100020C810002038B5134D1F
S11319B02B685B6993B1124A022014681C4400F03E
S11319C067F9204600F092F900230E492A680B704B
S11319D0D088800709D501230B7038BD022000F0A0
S11319E057F9022000F0B8F9EEE79268002AF4D023
S11319F050690344012BEBD9EFE700BFCC10002062
S1131A00C8100020EA10002000220C490B687BB1AA
S1131A1083420AD183687AB1936083681BB15A699F
S1131A2041690A445A61002070471A469B68EEE7F0
S1131A300028EFD0022070470B60EEE7CC100020A6
S1131A4070B500F0B7FB144E05463478FCB9134B5F
S1131A501C60134B1C60134B1C8000F0D5F8012054
S1131A6000F016F900F080F90F4B0246186020B917
S1131A70284600F0A5FB232070BD234640F2E73141
S1131A800A4800F0B9F90A4B18600123337028465C
S1131A9000F096FB0020EFE7EB100020CC100020B4
S1131AA0C8100020DC100020D010002018FCFFFF1C
S1131AB0C41000202DE9F843C20704460BD54E4A52
S1131AC0138801339BB21380FFF756FF4B4B1B68FF
S1131AD00BB1FFF76BFFA30740F18B8000F06AFBAB
S1131AE04FF0000805464646FFF746FF434F3C6863
S1131AF00CB163698BB10022414B012E1A7003D1E2
S1131B0018F0020F18BF1E70002C6ED0FFF74EFFA6
S1131B102846BDE8F84300F053BB23465A693AB956
S1131B201A792179914288BF1C469B68002BF5D114
S1131B30284600F045FB2569DDB100F097F8A2695D
S1131B40A0EB02084FEAE873A84573F1000311DB28
S1131B5023691344A361E368B4F80680013613B122
S1131B6020462168984700F025FB0546FFF704FF4F
S1131B70BDE7A84600F01EFB81462046FFF744FF60
S1131B80484600F01DFB2369002BE4D0B5EB0805A3
S1131B904FEAE87363EB4303012D73F1000304DAA6
S1131BA040F22A51174800F0FCFAA38B33B1E28BC0
S1131BB013449BB2B3F57A7F0FD2E38300F0FAFAB1
S1131BC0804629462046FFF7B7FEA36922694046AE
S1131BD01344A36100F0F4FABDE7A3F57A73E38339
S1131BE0A369013D013BA361E8E7022000F068F826
S1131BF08EE7BDE8F88300BFDC100020CC10002085
S1131C00E91000200027000013B5144B144C1A8867
S1131C109B7820460121ADF804208DF80630FEF7AC
S1131C2063FF01212046FFF77BF80024012301A86C
S1131C308DF804308DF80640FFF7F4FD094BDA699E
S1131C4022F00702DA6107229A614FF080425C6059
S1131C50054BC3F880211A6002B010BD4327000071
S1131C60801612000000084000E100E0064A074B1D
S1131C7050681B781169DBB2C90744BF506801334F
S1131C8040EA0360704700BF00000840EC100020E9
S1131C9010F0020F084A00F0010308D00749087841
S1131CA018B1042090610020087043F00403D16946
S1131CB00B43D361704700BF000008405010002060
S1131CC0820744BF0121074A00F0010348BF117095
S1131CD0054948BF43F00403CA6922EA0303CB6100
S1131CE0704700BF501000200000084038B504467B
S1131CF000F059FA0546FFF7B9FF154A0346126981
S1131D0012F0040F134A06D11168091A032902D8E4
S1131D101168814213D1E11A022998BFDC1C013CED
S1131D2014601168CB1AB3F1807F0DD211680120C1
S1131D3021F07F41FFF750FD0220FFF7A9FF28465D
S1131D40BDE8384000F033BA0220FFF7B9FFF6E7E8
S1131D5000000840D4100020830742BF0422014B36
S1131D605A617047000008400148FFF7EBB800BF14
S1131D7080161200F8B500F01DFA1C4B06461D69CA
S1131D8015F0010405F0040705F0050506D1FFB9B7
S1131D909D613046BDE8F84000F012BA144A147848
S1131DA0137824060133DBB21370124B19681378CD
S1131DB0A1EB0361B1F1807F05D20120FFF70CFD97
S1131DC00220FFF765FF57B104F180735C425C4168
S1131DD0064B44F002009D61FFF76CFED9E7034B0C
S1131DE0B4F17F4F9D61D4D10120F5E70000084094
S1131DF0EC100020D410002053B94AB9002908BFC0
S1131E0000281CBF4FF0FF314FF0FF3000F06CB9D9
S1131E10ADF1080C6DE904CE00F006F8DDF804E03D
S1131E20DDE9022304B070472DE9F047089D0C4614
S1131E30002B4ED196468E458446B2FA82F262D980
S1131E404AB1C2F12003914020FA03F30EFA02FED4
S1131E50194300FA02FC4FEA1E47B1FBF7F407FBF3
S1131E6014111FFA8EF64FEA1C4343EA014304FBA4
S1131E7006F199420AD91EEB030304F1FF3080F006
S1131E801181994240F20E81023C7344591AB1FB0C
S1131E90F7F007FB101100FB06F61FFA8CF343EA78
S1131EA001439E420AD91EEB030300F1FF3180F087
S1131EB0FB809E4240F2F8807344023800219B1B51
S1131EC040EA04401DB1D3400022C5E90032BDE818
S1131ED0F0878B4205D90DB1C5E900010021084600
S1131EE0F5E7B3FA83F1002946D1A34202D3904225
S1131EF0C0F0F380861A64EB03030120002DE6D0C2
S1131F00C5E90063E3E7002A40F09080A1EB0E04EA
S1131F1001214FEA1E471FFA8EF6B4FBF7F007FBC8
S1131F2010444FEA1C4343EA044306FB00F49C427A
S1131F3008D91EEB030300F1FF3802D29C4200F2E1
S1131F40C98040461C1B1FFA8CF3B4FBF7FC07FB4B
S1131F501C4406FB0CF643EA04439E4208D91EEBDC
S1131F6003030CF1FF3402D29E4200F2AF80A44678
S1131F709B1B4CEA0040A5E7C1F120068B4022FAE6
S1131F8006FC4CEA030C24FA06F74FEA1C49B7FB9B
S1131F90F9F81FFA8CFE09FB187720FA06F38C4037
S1131FA000FA01FA08FB0EF01C43230C43EA074332
S1131FB0984202FA01F20AD91CEB030308F1FF3735
S1131FC080F0828098427FD9A8F1020863441F1AE6
S1131FD0B7FBF9F309FB137703FB0EFEA4B244EA43
S1131FE00744A64508D91CEB040403F1FF3067D26B
S1131FF0A64565D9023B644443EA0840A0FB02833A
S1132000A4EB0E049C42C6461F4651D34ED0002D6D
S113201067D0BAEB0E0364EB070424FA01F2CB4059
S1132020B4401C430021C5E9004250E70EFA02FE09
S1132030C2F12003D9404FEA1E4720FA03F300FA05
S113204002FCB1FBF7F007FB101194401C431FFA8C
S11320508EF6230C43EA014300FB06F1994208D9AA
S11320601EEB030300F1FF382CD299422AD902381F
S113207073445B1AB3FBF7F107FB1133A4B244EAD0
S1132080034401FB06F3A34208D91EEB040401F147
S1132090FF3813D2A34211D902397444E41A41EA35
S11320A000413AE70446F1E6084607E7C245AED2E6
S11320B0B8EB020E63EB0C070138A8E74146EDE7E5
S11320C0034699E74046D4E7B84680E77344ACF149
S11320D0020C4DE70238734434E7064623460846AB
S11320E00CE72946F3E600BF704700BF08B5064B6E
S11320F0044613B10021AFF30080044B1B6803B105
S11321009847204600F04EF800000000D810002048
S113211070B500260C4D0D4C641BA410A64209D1C9
S113212000F08EF800260A4D0A4C641BA410A64247
S113213005D170BD55F8043B98470136EEE755F8D4
S1132140043B98470136F2E7541000205410002055
S113215054100020581000200020FEF77BB908B569
S113216000F042F8FFF7F8FF00F04BF8FEF73AF8FA
S1132170FAE77047704708B500F00AF8BDE8084070
S1132180FFF75EBC704770477047704770477047F1
S11321900F207047FEE74FF4004070474FF47A7009
S11321A07047FEE7FEE7EFF3108072B6704700B9A0
S11321B062B67047EFF31180602383F31188704790
S11321C080F31188704713B54FF44073002401A8BD
S11321D0ADF804308DF80640FEF7BEFF3220FEF75E
S11321E0F3FF204602B010BD08B5FEF7EFF9FFF784
S11321F0C1FFFFF7C0FFFFF7C5FFBDE80840FFF7C9
S1132200C2BF08B5FFF7C0FFFFF7BFFFFFF7BEFF70
S1132210BDE80840FFF7BBBF03460244934200D128
S1132220704703F8011BF9E7034613F8012B002A52
S1132230FBD1181A013870470000000000000000AC
S1132240F8B500BFF8BC08BC9E467047F8B500BF9F
S1132250F8BC08BC9E467047000000000000000067
S1132260000000000000000000000000000000006A
S1132270000000000000000000000000000000005A
S113228041444A41204D45472041204E4548455A46
S11322905345474920535A494E54455400000000C1
S11322A00000000000010101010000000000000026
S11322B001000000030040000C00000000000000CA
S11322C0000000000000001180020000000002066F
S11322D00000200039000F000000401500204004D9
S11322E0001000223F0006005B044F0466046D04E6
S11322F07D0407007F046F0400000000000A000052
S113230080200000FFFF7704790A3900B0207900AB
S113231071007D04760406000E00700A3800B602CF
S1132320B6083F0073043F08730C6D0401113E00AE
S113233030223628802A6E040922390080080F00D2
S113234001000800000158107C0458005E04582065
S113235071040C0C740404000E00700C3800541446
S113236054045C04730467045004080C78001C00D3
S113237010201428802A0C084820000001010507B9
S1132380070304020302040605060D0E0E0E0D0DCE
S11323900D0D0E0E0E0E0D0D0101050707030402AF
S11323A00302040605060F1010100F0F0F0F101074
S11323B010100F0F010105070703040203020406AE
S11323C00506111212121111111112121212111109
S11323D00101050707030402030204060506131C92
S11323E01C1C131313131C1C1C1C131300010507C2
S11323F0060203010302040604051D1E1E1E1D1D04
S11324001D1D1E1E1E1E1D1D0001050706020301C3
S11324100302040604051F2020201F1F1F1F202065
S113242020201F1F010105070703040203020406FD
S113243005062122222221212121222222222121B8
S1132440070502010306042323232323232307056B
S1132450020103060424242424242424070502015D
S11324600306042525252525252507050201030640
S113247004262626262626260001070206272727C5
S113248027270000000000000000131211100F0E97
S11324900D0C000000002125242601010304040280
S11324A003020D0E0D0D0E0D0E0E010103040402A8
S11324B003020F100F0F100F101001010304040288
S11324C00302111211111211121201010304040268
S11324D00302131C13131C131C1C0001020304012C
S11324E003021D1E1D1D1E1D1E1E000102030401EC
S11324F003021F201F1F201F2020010103040402C8
S11325000302212221212221222205070704040695
S113251005060E0E0D0D0E0E0D0D0507070404061F
S1132520050610100F0F10100F0F050707040406FF
S113253005061212111112121111050707040406DF
S113254005061C1C13131C1C1313050706030406A1
S113255004051E1E1D1D1E1E1D1D05070603040663
S1132560040520201F1F20201F1F05070704040641
S113257005062222212122222121433A5C6265613F
S11325806779737A6F6674766572323032355C6857
S1132590617A6966656C616461746B6F7A6F735C90
S11325A06765636B6F5F73646B5F342E342E365CC8
S11325B0706C6174666F726D5C656D6C69625C6988
S11325C06E632F656D5F636D752E68002E2E2F6709
S11325D065636B6F5F73646B5F342E342E362F70BC
S11325E06C6174666F726D2F656D6C69622F7372A6
S11325F0632F656D5F636D752E63000000028000BC
S11326000800020020000001400004000100100046
S11326100907030105433A5C6265616779737A6F60
S11326206674766572323032355C68617A696665E3
S11326306C616461746B6F7A6F735C6765636B6FF5
S11326405F73646B5F342E342E365C706C61746619
S11326506F726D5C656D6C69625C696E632F656D2C
S11326605F6275732E68002E2E2F6765636B6F5F34
S113267073646B5F342E342E362F706C6174666F06
S1132680726D2F656D6C69622F7372632F656D5F58
S11326906C63642E63002E2E2F6765636B6F5F730C
S11326A0646B5F342E342E362F706C6174666F72D7
S11326B06D2F656D6C69622F7372632F656D5F7228
S11326C074632E63002E2E2F6765636B6F5F7364D4
S11326D06B5F342E342E362F706C6174666F726D9E
S11326E02F656D6C69622F7372632F656D5F7379EB
S11326F07374656D2E630000000001010303000084
S11327002E2E2F6765636B6F5F73646B5F342E349B
S11327102E362F706C6174666F726D2F73657276CE
S11327206963652F736C65657074696D65722F7369
S113273072632F736C5F736C65657074696D657219
S10B27402E63000100010000FA
S10B274820DAFF7F010000000C
S10F27505C2700000010002017000000AF
S113275C0100000001000000010000000100000065
S113276C0100000001000000010000000100000055
S113277C0100000001000000010000000100000045
S113278C0100000001000000010000000100000035
S113279C809FD50000800000006CDC02FFFFFFFF6F
S10F27AC01000000450100001D010000B8
S90306599D
