:1000000000100020C1020000B3180000B318000067
:10001000B3180000B3180000B3180000B3180000B4
:10002000B3180000B3180000B3180000B3180000A4
:10003000B3180000B3180000B3180000B318000094
:10004000B3180000B3180000B3180000B318000084
:10005000B3180000B3180000B3180000B318000074
:10006000B3180000B3180000B3180000B318000064
:10007000B3180000B3180000B3180000B318000054
:10008000B3180000B3180000B3180000B318000044
:10009000B3180000B3180000B3180000B318000034
:1000A000B3180000B3180000B3180000B318000024
:1000B000B3180000B318000095140000B318000036
:1000C000B3180000B3180000B3180000B318000004
:1000D000B3180000B3180000B31800000348044B25
:1000E000834202D0034B03B1184770471C10002015
:1000F0001C100020000000000548064B1B1AD90FF9
:1001000001EBA301491002D0034B03B1184770471C
:100110001C1000201C1000200000000010B5064C30
:10012000237843B9FFF7DAFF044B13B10448AFF368
:1001300000800123237010BD4E100020000000003D
:10014000EC1A000008B5054B1BB105490548AFF393
:100150000080BDE80840FFF7CFBF00BF00000000EF
:100160001C100020EC1A0000A3F5803A704700BF75
:10017000174B002B08BF134B9D46FFF7F5FF0021DF
:100180008B460F461348144A121A01F0D4FB0E4B4B
:10019000002B00D098470D4B002B00D09847002033
:1001A000002104000D000D48002802D00C48AFF3D8
:1001B000008001F03DFB2000290001F05FFB01F011
:1001C00025FB00BF00000800000000000000000048
:1001D000001000201C10002054100020000000001F
:1001E0000000000010B500F041FE01210F4800F0B2
:1001F000CBFB01220020114600F00CFE01220C4C2A
:100200001146A36A002023F4803323F0030343F054
:100210000203A36200F0FEFDA36A002023F4801312
:1002200023F00C0343F00803A36210BDD0433E004B
:1002300000800C4013B50122164B1A6400F0B8FE82
:10024000044601A800F08CFE0F2C12D99DF8043052
:10025000022B0ED99DF80520022A01D1042B08D0CB
:100260000D4AD2F8C03023F0500343F01003C2F817
:10027000C03000F0D3FE00F01DF801F033FB00F0B9
:10028000B7FEFFF7AFFF00F0A3FE02B0BDE81040DD
:1002900000F004B800000C4000800C4008B50121BB
:1002A000034800F071FBBDE8084001F0F1BA00BF5F
:1002B00000D204000121014800F066BB00D2040016
:1002C00008B500F0B9F8124B12498B4212D3002046
:1002D000114B12498B4218D3FFF74AFF186850F8A8
:1002E0002240586840F82240013298688242F5D393
:1002F0000C33EAE70022F8E71C6844F822000132D8
:100300005C68A242F8D30833E4E70022F8E700BFB4
:10031000F41A0000001B0000001B0000001B00007E
:1003200000487047006CDC02254AD36A03F470531E
:10033000B3F5805F3AD0B3F5005F04D0B3F5006F3A
:100340000BD1204B00E0204B1B681D4A1068C0F306
:1003500082300130B3FBF0F07047D36803F4E06300
:10036000B3F5407F25D008D8B3F5807F0ED0B3F524
:10037000007F20D0A3B10023E7E7B3F5806F1CD046
:10038000B3F5A06F114B18BF0023DEE7104B114AE5
:10039000D3F8FC10104BB1F1985F28BF1346D4E797
:1003A0000B4B0E4AD3F8FC100D4BF4E74FF400430F
:1003B000CBE70C4BC9E70C4BC7E70C4BC5E700BFBD
:1003C00000800C400810002004100020003FAB010A
:1003D0000081E00F40B56400C0CF6A00804F12007A
:1003E00040420F00809FD500C0D8A700406F400159
:1003F00008B5FFF799FF044B5B6803F00F03D84083
:10040000024B186008BD00BF00800C4000100020A7
:10041000014B1868704700BF08100020044B18609B
:10042000044BDB6A1B0501D5FFF7E2BF704700BF35
:100430000810002000800C40014A024B9A6070476F
:100440000000000000ED00E0014B1868704700BF9D
:100450000410002010B5431EB3F5004F044604D22B
:10046000B4FA84F0C0F11F0010BD40F69351034868
:1004700001F026FA002CF3D12020F3E7A0190000A8
:1004800008B5194B5B6903F4E063B3F5407F16D000
:100490000DD8B3F5807F20D0B3F5007F18D0F3B12D
:1004A00041F29C61114801F00BFA00230EE0B3F514
:1004B000C06F16D0B3F5E06FF2D10D4B06E000F03F
:1004C00077FD0C4B0C4A122888BF1346184608BD0E
:1004D00000F06EFD094B0A4AF5E70A4BF6E70A4BB6
:1004E000F4E70A4BF2E700BF00800C40F21900006D
:1004F000406F400140420F00804F1200C0CF6A00A1
:1005000040B56400C0D8A700809FD500003FAB0174
:10051000034B5A6DD20702D41A6D1042FCD17047BA
:1005200000800C4008B500F04BFD4A2805D0792822
:1005300003D0482818D1104815E010490E48D1F8CA
:10054000E030D1F8E820D1F8EC101B0203F47C5322
:10055000C1F3031102F0F0020B431343084AB3F551
:10056000017F28BF104608BD064841F2186101F01E
:10057000A7F90020F7E700BF0048E80100FF0FE0FF
:1005800000366E01F219000010B50446FFF7CAFFED
:10059000A04207D2FFF7C6FFB4EB400F0ED80122EE
:1005A000012301E00022134605498B6705494B688A
:1005B00023F4807343EA02234B6010BD0222EFE76D
:1005C0000000904300800C40144B5A686FF01303F6
:1005D00002F00702134113F0010F114B09D19842A9
:1005E00017D8104B104A034493422CBF0023012319
:1005F00008E098420FD80B4B0B4A0344934234BF98
:100600000323022305494A6822F0070213434B6083
:1006100070470423F6E70523F4E700BF00000C4011
:100620000048E801FFDB0BFF0024F40038B541F679
:100630007133064CE56BE363FFF772FEADB2FFF773
:10064000C3FF0DB10023E36338BD00BF00000C40C1
:1006500038B541F67133054CE56BE363ADB2FFF796
:10066000B3FF0DB10023E36338BD00BF00000C40B1
:1006700008B5C0F30313013B0C2B5AD8DFE803F095
:100680000759590D5959141D4759595917002A4BE3
:100690001868C0F38230013008BD274B9B6803F017
:1006A0000F0301209840F7E7234B5B68F7E7224BE5
:1006B0005B68C3F300230133F3E7204B984220D05B
:1006C0000DD81F4B984212D003F58223984213D0C5
:1006D00041F62F411B4801F0F3F80120DCE71A4BEB
:1006E0009842F5D1144B9B6E03F00303D9E7124BEC
:1006F0009B6EC3F30313D4E70F4B9B6EC3F303232B
:10070000CFE70D4B9B6EC3F301330433C9E70F4BA7
:10071000984206D003F50433984205D041F648418B
:10072000D8E7054B1B6FDFE7034B1B6FC3F30113C8
:10073000B7E741F64F41CDE700800C4080002A002A
:1007400080161200F219000080062E0090071A0091
:1007500010B5C0F30313013B0C460C2B00F20581CE
:10076000DFE813F00D00030103012500030103017D
:1007700044006700D10003010301030138004C1E4F
:10078000072C04D941F67C41794801F099F8FFF72C
:100790004DFF784A136823F4E03343EA843414604D
:1007A000FFF726FEBDE810400021FFF751BF4B1EAA
:1007B000B3F5007F04D341F68F416D4801F080F816
:1007C0002046FFF747FE6B4A936823F00F0303436D
:1007D000936010BD0846FFF73DFE664A0138536836
:1007E00023F4807343EA00235360F2E74B1EB3F512
:1007F000007F04D341F6A5415D4801F061F8FFF7A1
:1008000015FFFFF7F5FDB0FBF4F0FFF7BDFE204646
:10081000FFF720FE574A536823F00F03034353604A
:10082000FFF7E6FD0021FFF713FFBDE81040FFF7DB
:10083000ABBE514B98424FD00DD8504B984220D070
:1008400003F58223984232D041F6FE41BDE81040C4
:10085000474801F035B84A4B9842F5D1082904D9E8
:1008600041F6F041424801F02BF80420FFF750FE1A
:100870002046FFF7EFFD3F4A936E23F00303034347
:1008800013E0B1F5004F04D941F6C341384801F0F7
:1008900017F80420FFF73CFE2046FFF7DBFD354A42
:1008A000936E23F0F00343EA0013936691E7B1F5EA
:1008B000004F04D941F6D1412D4801F001F8042040
:1008C000FFF726FE2046FFF7C5FD2A4A936E23F464
:1008D000706343EA0023E8E7A1F11003702B04D909
:1008E0004FF4E751224800F0EBFF0420FFF710FE21
:1008F0002046FFF7AFFD1F4A0438936E23F44053A0
:1009000043EA0033D1E71F4B984206D003F5043386
:10091000984216D041F6245198E7082904D941F6A7
:100920000751134800F0CCFF4020FFF7F1FD2046AF
:10093000FFF790FD0F4A136F23F003030343136780
:1009400047E7082904D941F61651094800F0B8FFD5
:100950004020FFF7DDFD2046FFF77CFD054A136FC1
:1009600023F0300343EA0013E9E741F62A516DE72B
:10097000F219000000800C4080002A00801612004E
:1009800080062E0090071A0070B5C0F30323013BC8
:1009900004460E46092B16D8DFE803F0302C051567
:1009A00015272015151CFFF723FDFFF7EDFD154D4D
:1009B000C4F3043405F1424505F5801504EBC50484
:1009C000A400266070BD41F6B051BDE870400E48ED
:1009D00000F076BF0D4DC0F30434EBE7C0F30434F0
:1009E00010200B4DFFF794FDE4E7C0F30434094DEC
:1009F0000120F7E7084DC0F30434DBE7074DC0F3EF
:100A00000434D7E740800C40F219000078800C4095
:100A100060800C4058800C4044800C4008800C40A2
:100A200008B500F00F00013806284CD8DFE800F0C8
:100A30000414254B4B333B00294BDB6A03F4705302
:100A4000B3F5805F4AD0B3F5005F45D0B3F5006FD2
:100A50000CBF0420052008BD214B986A00F003005C
:100A60000228F8D0032835D0012837D09B6A13F428
:100A7000803F0CBF01200A20EDE7194A936A03F07A
:100A80000C03082B28D00C2B24D0042B26D0936ADF
:100A900013F4801FEDE7124B1B6813F0805F0CBF4F
:100AA00007200920D7E70E4BDB6A03F46033B3F568
:100AB000803F11D0B3F5003F10D0B3F5004F0CBF0D
:100AC00009200120C7E7074842F2013100F0F8FE93
:100AD0000020C0E70620BEE70220BCE70320BAE7FB
:100AE00000800C40F219000010B52B4B04469842D0
:100AF00023D02A4B984213D041F61311284800F016
:100B0000DFFE2046FFF78CFF044641F642112448E1
:100B100000F0D6FE032C37D8DFE804F03B1C20247D
:100B2000FFF77EFF1F4A936AC3F38103013B022B49
:100B300027D8DFE803F00F131700FFF771FF194AFA
:100B4000936A03F00303013B022B12D8DFE803F0A2
:100B500002060A00BDE8104000F0ACBEBDE810403F
:100B6000FFF772BCFFF744FC0F4B9B6F0133D8407B
:100B700010BD936A1022D3400BD0BDE8104000F0A6
:100B80009CBE936A1422F6E741F66D11044800F00A
:100B900097FE0020ECE700BF02001E0003002000CB
:100BA000F219000000800C400000904338B500F4BA
:100BB0007813B3F5E01F054600F087802ED8B3F513
:100BC000801F00F0918018D8B3F5802F50D006D840
:100BD0007BB1B3F5003F53D04FF4F7517FE0B3F54D
:100BE000602FF9D15048FFF71BFF07287CD0092858
:100BF00073D1BDE83840FFF797BBB3F5B01F43D0C2
:100C0000B3F5D01F5BD0B3F5901FE5D14748FFF790
:100C10006BFF474B9B6EC3F303132FE0B3F5281F05
:100C20003AD00DD8B3F5001F47D0B3F5181F5FD0E9
:100C3000B3F5F01FD0D13D48BDE83840FFF754BFB1
:100C4000B3F5381F31D0B3F5781F63D0B3F5301F3B
:100C5000C2D13648FFF748FF354A936EC3F30133DC
:100C6000D840D36F03F007030133B0FBF3F038BD76
:100C7000FFF75AFB2E4B9B6803F00F03D840F6E7B3
:100C8000BDE83840FFF7B4BB2848FFF72DFF284BDD
:100C90009B6EC3F30323F1E72448FFF725FF244BA2
:100CA0009B6EC3F301330433E8E72048FFF71CFFD2
:100CB0001F4B9B6E03F00303E0E71E48BCE71D4893
:100CC000FFF712FF1A4B1B6FF4E71A48FFF70CFFF0
:100CD000174B1B6FC3F30113D0E741F2D6611648DF
:100CE00000F0EEFD0020C2E7BDE83840FFF7C8BBCA
:100CF0001248FFF795FE032808D009283FF479AF82
:100D00000228EFD1BDE83840FFF79EBBBDE8384070
:100D100000F0D0BDFFF76CFB04462846FFF7A8FCA7
:100D2000B4FBF0F0A3E700BF06000E0002001E00B7
:100D300000800C4003002000F21900000723260069
:100D400010B504461120FFF76BFE042804D142F6CB
:100D500073210C4800F0B4FD08230B4A136213689A
:100D6000E17823F4D16323F007030B43617843EA6E
:100D70004123217843EA8103A17843EAC113136038
:100D800010BD00BFF219000000800C4070B5054690
:100D90001120FFF745FE022804D142F62B311448FA
:100DA00000F08EFD4FF40073124E3362AC786B7816
:100DB000E40244EA83442B78C3F3400344EA433417
:100DC00000F080FD33685C4024F07F4424F4730419
:100DD00024F4474424F0FF045C40346000F076FDC6
:100DE0002B78054A03F00103C2F8A03470BD00BFA0
:100DF000F219000000800C4000008C43014B188069
:100E0000704700BF0E100020014B1880704700BFD4
:100E10000C10002030B404280BD80E4B1C5C0E4B79
:100E200033F810500D4B33F810000D4B39B91862E0
:100E30000DE042F6F93130BC0A4800F041BD1D62B8
:100E40002AB1094B23449B001A68002AFCD030BC0D
:100E5000704700BF361A00002C1A0000221A00004A
:100E600000800C40F21900006001E41008B5FFF7A3
:100E700059FB0130FFF788FBFFF7CAFA104A114B04
:100E8000984213684FF0020096BF23F0600343F0CE
:100E9000600343F02003136001221146FFF7BAFFFD
:100EA000FFF7C4FB0222064B5A62FFF7A1FAFFF7D5
:100EB0006BFBFFF79DFABDE808400021FFF7C8BBB8
:100EC00000800C400048E80110B504798378094996
:100ED00023430478CA6A43EA0443C478407822F47E
:100EE000803243EA440322F01F0243EA0013134313
:100EF000CB6210BD00600C4038B5012805460C4699
:100F00000CD9A4210C4800F0DBFCB4F1807F12D393
:100F1000BDE83840A921084800F0D2BCB1F1807F7B
:100F200003D3A921044800F0CBFC044B044A012D53
:100F300018BF13461C6038BD3B1A00000C00084067
:100F400008000840427803780AB143F0020382782F
:100F50000AB143F00403014A1360704700000840DF
:100F600010B5044618B957210F4800F0A9FC0F4AE4
:100F7000D2F8E430D2F8E0109B0003F03C03C1F358
:100F800081110B43A370D2F8E03003F03F0363708C
:100F9000D2F8E830D2F8EC2003F0F003C2F30312E9
:100FA0001343237010BD00BF6A1A000000FF0FE05A
:100FB000024BD3F8FC00000E704700BF0081E00F29
:100FC000024BD3F8FC00C0F3074070470081E00FEC
:100FD00007B5064B18681B79009068468DF80430F9
:100FE000FFF772FF002003B05DF804FB9C1A0000BD
:100FF00007B5084B186801900748FFF70FFA01A8DA
:10100000FFF79EFE3220FFF7FFFE002003B05DF8E1
:1010100004FB00BFA11A0000006CDC0210B56FF0E9
:101020000403A0210A480B4C13F0800F03F10102C6
:1010300007D12344272A83F800131346F4D1002054
:1010400010BD03F00F03043B034419761346EBE78E
:1010500000ED00E000E100E030B50E4C4161236896
:101060008BB9206083600DE0891A9A681D46416142
:101070006AB113465A698A42F6D935B1A860521A44
:1010800083605A6130BD0025F4E72060F7E798607F
:101090008260F7E73C10002038B500F077F90025B2
:1010A000084B094C1A682368C31A2AB123B1516945
:1010B000994203D3C91A5161206038BD55615B1A4A
:1010C0009268F2E73C1000203810002038B5134D2C
:1010D0002B685B6993B1124A022014681C4400F02B
:1010E00067F9204600F092F900230E492A680B7038
:1010F000D088800709D501230B7038BD022000F08D
:1011000057F9022000F0B8F9EEE79268002AF4D00F
:1011100050690344012BEBD9EFE700BF3C100020DE
:10112000381000205010002000220C490B687BB1C1
:1011300083420AD183687AB1936083681BB15A698C
:1011400041690A445A61002070471A469B68EEE7DD
:101150000028EFD0022070470B60EEE73C10002023
:1011600070B500F0B6FB144E05463478FCB9134B4D
:101170001C60134B1C60134B1C8000F0D5F8012041
:1011800000F016F900F080F90F4B0246186020B904
:10119000284600F0A4FB232070BD234640F2E7312F
:1011A0000A4800F0B9F90A4B186001233370284649
:1011B00000F095FB0020EFE7511000203C100020CC
:1011C000381000204C1000204010002018FCFFFFB9
:1011D000341000202DE9F843C20704460BD54E4ACF
:1011E000138801339BB21380FFF756FF4B4B1B68EC
:1011F0000BB1FFF76BFFA30740F18B8000F069FB99
:101200004FF0000805464646FFF746FF434F3C684F
:101210000CB163698BB10022414B012E1A7003D1CE
:1012200018F0020F18BF1E70002C6ED0FFF74EFF93
:101230002846BDE8F84300F052BB23465A693AB944
:101240001A792179914288BF1C469B68002BF5D101
:10125000284600F044FB2569DDB100F097F8A2694B
:10126000A0EB02084FEAE873A84573F1000311DB15
:1012700023691344A361E368B4F80680013613B10F
:1012800020462168984700F024FB0546FFF704FF3D
:10129000BDE7A84600F01DFB81462046FFF744FF4E
:1012A000484600F01CFB2369002BE4D0B5EB080591
:1012B0004FEAE87363EB4303012D73F1000304DA93
:1012C00040F22A51174800F0FBFAA38B33B1E28BAE
:1012D00013449BB2B3F57A7F0FD2E38300F0F9FA9F
:1012E000804629462046FFF7B7FEA369226940469B
:1012F0001344A36100F0F3FABDE7A3F57A73E38327
:10130000A369013D013BA361E8E7022000F068F812
:101310008EE7BDE8F88300BF4C1000203C10002091
:101320004F100020A51A000013B5144B144C1A8856
:101330009B7820460121ADF804208DF80630FFF798
:1013400007FA01212046FFF71FFB0024012301A813
:101350008DF804308DF80640FFF7F4FD094BDA698B
:1013600022F00702DA6107229A614FF080425C6046
:10137000054BC3F880211A6002B010BDE81A0000C6
:10138000801612000000084000E100E0064A074B0A
:1013900050681B781169DBB2C90744BF506801333C
:1013A00040EA0360704700BF000008405210002070
:1013B00010F0020F084A00F0010308D0074908782E
:1013C00018B1042090610020087043F00403D16933
:1013D0000B43D361704700BF00000840101000208D
:1013E000820744BF0121074A00F0010348BF117082
:1013F000054948BF43F00403CA6922EA0303CB61ED
:10140000704700BF101000200000084038B50446A7
:1014100000F058FA0546FFF7B9FF154A034612696E
:1014200012F0040F134A06D11168091A032902D8D1
:101430001168814213D1E11A022998BFDC1C013CDA
:1014400014601168CB1AB3F1807F0DD211680120AE
:1014500021F07F41FFF750FD0220FFF7A9FF28464A
:10146000BDE8384000F032BA0220FFF7B9FFF6E7D6
:101470000000084044100020830742BF0422014BB3
:101480005A617047000008400148FFF78FBB00BF5A
:1014900080161200F8B500F01CFA1C4B06461D69B8
:1014A00015F0010405F0040705F0050506D1FFB9A4
:1014B0009D613046BDE8F84000F011BA144A147836
:1014C000137824060133DBB21370124B19681378BA
:1014D000A1EB0361B1F1807F05D20120FFF70CFD84
:1014E0000220FFF765FF57B104F180735C425C4155
:1014F000064B44F002009D61FFF76CFED9E7034BF9
:10150000B4F17F4F9D61D4D10120F5E70000084080
:10151000521000204410002053B94AB9002908BFD6
:1015200000281CBF4FF0FF314FF0FF3000F06CB9C6
:10153000ADF1080C6DE904CE00F006F8DDF804E02A
:10154000DDE9022304B070472DE9F047089D0C4601
:10155000002B4ED196468E458446B2FA82F262D96D
:101560004AB1C2F12003914020FA03F30EFA02FEC1
:10157000194300FA02FC4FEA1E47B1FBF7F407FBE0
:1015800014111FFA8EF64FEA1C4343EA014304FB91
:1015900006F199420AD91EEB030304F1FF3080F0F3
:1015A0001181994240F20E81023C7344591AB1FBF9
:1015B000F7F007FB101100FB06F61FFA8CF343EA65
:1015C00001439E420AD91EEB030300F1FF3180F074
:1015D000FB809E4240F2F8807344023800219B1B3E
:1015E00040EA04401DB1D3400022C5E90032BDE805
:1015F000F0878B4205D90DB1C5E9000100210846ED
:10160000F5E7B3FA83F1002946D1A34202D3904211
:10161000C0F0F380861A64EB03030120002DE6D0AE
:10162000C5E90063E3E7002A40F09080A1EB0E04D7
:1016300001214FEA1E471FFA8EF6B4FBF7F007FBB5
:1016400010444FEA1C4343EA044306FB00F49C4267
:1016500008D91EEB030300F1FF3802D29C4200F2CE
:10166000C98040461C1B1FFA8CF3B4FBF7FC07FB38
:101670001C4406FB0CF643EA04439E4208D91EEBC9
:1016800003030CF1FF3402D29E4200F2AF80A44665
:101690009B1B4CEA0040A5E7C1F120068B4022FAD3
:1016A00006FC4CEA030C24FA06F74FEA1C49B7FB88
:1016B000F9F81FFA8CFE09FB187720FA06F38C4024
:1016C00000FA01FA08FB0EF01C43230C43EA07431F
:1016D000984202FA01F20AD91CEB030308F1FF3722
:1016E00080F0828098427FD9A8F1020863441F1AD3
:1016F000B7FBF9F309FB137703FB0EFEA4B244EA30
:101700000744A64508D91CEB040403F1FF3067D257
:10171000A64565D9023B644443EA0840A0FB028326
:10172000A4EB0E049C42C6461F4651D34ED0002D5A
:1017300067D0BAEB0E0364EB070424FA01F2CB4046
:10174000B4401C430021C5E9004250E70EFA02FEF6
:10175000C2F12003D9404FEA1E4720FA03F300FAF2
:1017600002FCB1FBF7F007FB101194401C431FFA79
:101770008EF6230C43EA014300FB06F1994208D997
:101780001EEB030300F1FF382CD299422AD902380C
:1017900073445B1AB3FBF7F107FB1133A4B244EABD
:1017A000034401FB06F3A34208D91EEB040401F134
:1017B000FF3813D2A34211D902397444E41A41EA22
:1017C00000413AE70446F1E6084607E7C245AED2D3
:1017D000B8EB020E63EB0C070138A8E74146EDE7D2
:1017E000034699E74046D4E7B84680E77344ACF136
:1017F000020C4DE70238734434E706462346084698
:101800000CE72946F3E600BF704700BF08B5064B5A
:10181000044613B10021AFF30080044B1B6803B1F1
:101820009847204600F04DF80000000048100020C6
:1018300070B500260C4D0D4C641BA410A64209D1B6
:1018400000F08EF800260A4D0A4C641BA410A64234
:1018500005D170BD55F8043B98470136EEE755F8C1
:10186000043B98470136F2E71410002014100020C2
:1018700014100020181000207047704708B500F0C1
:1018800042F8FFF7F9FF00F04BF8FFF7F6FFFAE731
:101890007047704708B500F00AF8BDE80840FFF748
:1018A0005FBC7047704770477047704770470F20A4
:1018B0007047FEE74FF4004070474FF47A7070476E
:1018C000FEE7FEE7EFF3108072B6704700B962B62C
:1018D0007047EFF31180602383F31188704780F322
:1018E0001188704713B54FF44073002401A8ADF878
:1018F00004308DF80640FFF749FA3220FFF77EFAF0
:10190000204602B010BD08B5FEF794FCFFF7C1FFFA
:10191000FFF7C0FFFFF7C5FFBDE80840FFF7C2BFF4
:1019200008B5FFF7C0FFFFF7BFFFFFF7BEFFBDE839
:101930000840FFF7BBBF03460244934200D1704703
:1019400003F8011BF9E700000000000000000000A0
:101950000000000000000000000000000000000087
:10196000F8B500BFF8BC08BC9E467047F8B500BF8C
:10197000F8BC08BC9E467047000000000000000054
:101980000000000000000000000000000000000057
:101990000000000000000000000000000000000047
:1019A000433A5C6265616779737A6F6674766572D3
:1019B000323032355C68617A6966656C6164617485
:1019C0006B6F7A6F735C6765636B6F5F73646B5F7C
:1019D000342E342E365C706C6174666F726D5C658B
:1019E0006D6C69625C696E632F656D5F636D752EEA
:1019F00068002E2E2F6765636B6F5F73646B5F34B7
:101A00002E342E362F706C6174666F726D2F656D7B
:101A10006C69622F7372632F656D5F636D752E63E2
:101A200000000002800008000200200000014000C9
:101A300004000100100009070301052E2E2F676521
:101A4000636B6F5F73646B5F342E342E362F706C54
:101A50006174666F726D2F656D6C69622F7372634E
:101A60002F656D5F7274632E63002E2E2F67656382
:101A70006B6F5F73646B5F342E342E362F706C6126
:101A800074666F726D2F656D6C69622F7372632F50
:101A9000656D5F73797374656D2E630000000001DE
:101AA00001030300002E2E2F6765636B6F5F736465
:101AB0006B5F342E342E362F706C6174666F726DCE
:101AC0002F736572766963652F736C6565707469D1
:101AD0006D65722F7372632F736C5F736C656570C5
:0C1AE00074696D65722E63000100010046
:081AEC007CE6FF7F0100000011
:0C1AF400001B0000001000200700000094
:101B0000809FD50000800000006CDC02FFFFFFFF1B
:0C1B100001000000450100001D01000064
:04000003000002C136
:00000001FF
