:100000000010002075090000C12C0000C12C000068
:10001000C12C0000C12C0000C12C0000C12C00002C
:10002000C12C0000C12C0000C12C0000C12C00001C
:10003000C12C0000C12C0000C12C0000C12C00000C
:10004000C12C0000C12C0000C12C0000C12C0000FC
:10005000C12C0000C12C0000C12C0000C12C0000EC
:10006000C12C0000C12C0000C12C0000C12C0000DC
:10007000C12C0000C12C0000C12C0000C12C0000CC
:10008000C12C0000A9040000C12C0000C12C0000FC
:10009000C12C0000C12C0000C12C0000C12C0000AC
:1000A000C12C0000C12C0000C12C0000C12C00009C
:1000B000C12C0000C12C000031280000C12C000020
:1000C000C12C0000C12C0000C12C0000C12C00007C
:1000D000C12C0000C12C0000C12C00000348044BBF
:1000E000834202D0034B03B11847704760100020D1
:1000F00060100020000000000548064B1B1AD90FB5
:1001000001EBA301491002D0034B03B1184770471C
:1001100060100020601000200000000010B5064CA8
:10012000237843B9FFF7DAFF044B13B10448AFF368
:1001300000800123237010BDF21000200000000099
:100140001838000008B5054B1BB105490548AFF349
:100150000080BDE80840FFF7CFBF00BF00000000EF
:100160006010002018380000A3F5803A704700BFE7
:10017000174B002B08BF134B9D46FFF7F5FF0021DF
:100180008B460F461348144A121A02F0F6FD0E4B26
:10019000002B00D098470D4B002B00D09847002033
:1001A000002104000D000D48002802D00C48AFF3D8
:1001B000008002F00BFD2000290002F066FD02F035
:1001C000F3FC00BF00000800000000000000000079
:1001D000001000206010002004110020000000002A
:1001E00000000000F8B52A4C2A4823680133236038
:1001F00002F0CBFD2322236893FBF2F102FB1133C3
:10020000D3B9254D25492B680F461A46DFF884E0FF
:1002100003F1080C904294BF20261EF802600132C0
:10022000944501F8016BF5D100220133834228BFC8
:1002300013463A722B602260184800F0E1FA00F091
:1002400081F9174B0028C8BF18601C68154F002C97
:10025000B8BF0734E4103D68013484F30304124E40
:10026000AC42346013D00DDC3B68A3420DDD013499
:100270000021204600F002FBF6E701350121284667
:1002800000F0FCFA3368AB42F7DC33683B60F8BD42
:1002900080100020E02D000084100020F3100020CA
:1002A0007C100020001000207810002010B500F015
:1002B000F9FB0521112001F003FA0321124801F096
:1002C000FFF90121114801F0FBF90121104800F06C
:1002D0003DFF01210F4800F039FF01210E4800F0D9
:1002E00035FF0E4C01210E4800F030FF01210D4872
:1002F00000F02CFF2046012100F028FF2046BDE839
:100300001040012100F006BE02001E000300200084
:100310004081040000D204000092040080062E00F8
:1003200000A20400D0433E0070B500230B4E1A46D5
:100330001946304600F02CFC0023094C094D1946A3
:1003400020461A4600F024FC2946304600F0DCFB2B
:1003500029462046BDE8704000F0D6BB00100040A2
:10036000001400404032000070B5474E0546337817
:100370001BB10121454801F0FDFE454C002D68D020
:1003800001F09EFE256A15F01005FBD101F0A4FED8
:100390000421284601F0EAFC294628463D4D01F09B
:1003A00045FD3D4802F0B4FC372108202A8801F0C1
:1003B0008BFD372109206A8801F086FD37210A204C
:1003C000AA8801F081FD37210B20EA8801F07CFD2D
:1003D000E36C23F48033E3644FF400322F4B1A6054
:1003E00001F056FE3378002B4DD00023284A33709D
:1003F000136A9B07FCD5002213462948244C254D3F
:1004000010F8011B59B1032B9FBF02F1A00154F852
:10041000211001F1FF3125F813100133DBB2013255
:10042000102AEDD11B4C37212288082001F04CFD09
:1004300062883721092001F047FDA28837210A2070
:1004400001F042FDE2883721BDE870400B2001F049
:100450003BBD01F035FE256A15F01005FBD14FF4C8
:100460008033636401F038FE4021284601F07EFCB1
:100470000321284601F0DAFC0A4802F049FCE36C4B
:1004800043F48033A7E770BD541000200032000011
:1004900000C00840E81000200030000000E100E04B
:1004A00054320000002E000070B51F49CB6C0A6C5E
:1004B0001340DB030FD54FF4803300224B641B4BFA
:1004C0001B4D1C4E1C4C1A701A780F2A13D91B4B4B
:1004D0001B6803B19847144BDA6C196C0A4012F48C
:1004E000706F1FD04FF470625A64154B1B68CBB10C
:1004F000BDE8704018471A78AA5C72B1886A1A7809
:10050000D2B246F822001A78D2B254F8222082429F
:100510003EBF1A78D2B244F822001A780132D2B221
:100520001A70D1E770BD00BF00C00840FC10002069
:100530005432000090100020041000208C10002085
:1005400088100020F0B58DB0264C06AD0FCC0FC53D
:1005500094E80300083485E803000FCC01AD0FC513
:10056000EC264FF0FF30012223681F4FDFF87CC0DC
:100570002B6006AC01AD55F8041F013957F8213046
:100580005CF821101B02B3FBF1F3B34238BF1046F5
:1005900002F1010238BF1E46052A44F8043FEAD1A1
:1005A000431C1DD00CA90CAA431E02EB800201EBD8
:1005B000800050F8140C52F8182CC0F58070C2F569
:1005C0008072C000B0FBF2F000EB031001EB83037C
:1005D00053F8183CC3F58073DB00B3FBF2F3C01A89
:1005E0000DB0F0BD64320000901000200410002017
:1005F000024A536E0342FCD1704700BF00A008407E
:1006000010B50022284C1046214601F0DFFA2146A1
:100610000022012001F0DAFA21460022022001F036
:10062000D5FA21460022032001F0D0FA214600220B
:10063000042001F0CBFA21460022052001F0C6FA81
:1006400021460022062001F0C1FA2146002207209F
:1006500001F0BCFA0022FF21104601F013FB00223A
:10066000FF21012001F00EFB0022FF21022001F0FA
:1006700009FB0022FF21032001F004FB0022FF21DF
:10068000042001F0FFFA0022FF21052001F0FAFA10
:100690000022FF21062001F0F5FABDE810400022FB
:1006A000FF21072001F0EEBA00F00FF010B5274C43
:1006B00000220720264901F089FA2146002206205F
:1006C00001F084FA21460022052001F07FFA21463C
:1006D0000022042001F07AFA21460022032001F0D2
:1006E00075FA21460022022001F070FA214600220C
:1006F000012001F06BFA00224FF02041104601F07A
:1007000065FA07210022084601F0BCFA0022072101
:10071000062001F0B7FA00220721052001F0B2FA05
:1007200000220721042001F0ADFA00220721032056
:1007300001F0A8FA00220721022001F0A3FABDE887
:10074000104000220721012001F09CBA00E00FF0C8
:1007500000E00F5010B501210446224800F0F6FCDD
:100760000321214800F0ACFF4021204800F0D2FBDB
:10077000012000F0EDFE01211D4800F0E7FC1D4BBB
:100780001D489A6A00229A6201F046F90121082068
:1007900001F078F90121102001F074F90121802085
:1007A00001F070F901214FF4807001F06BF9012123
:1007B0004FF4007001F066F964B14FF4402001F08D
:1007C000B5FA4FF4803001F04FF90C4AD36F43F083
:1007D0000803D367FFF714FFBDE810404FF0FF3068
:1007E000FFF706BFD0433E0002001E0080002A0033
:1007F00000362C0000A008409032000000800C4021
:100800002DE9F84F814602F0C0FA80464FF0FF30E4
:10081000FFF7EEFE0122164B00241A66FFF746FF93
:10082000144FDFF854A0A045D8BF20233E464FF018
:100830000005C8BF19F80430203B3AF813B04BFA52
:1008400005F3DB0704D50122B17B307801F026F9EE
:1008500001350E2D06F10106F1D10134072C07F107
:100860001C07E0D10022024B1A66BDE8F88F00BFDA
:1008700000A008405C330000A43200000A46054B8B
:10088000034493F8060193F80E1102B1012201F01E
:1008900005B900BF5C33000010B500F0E3FE012194
:1008A0000F4800F053FC01220020114600F0AEFE7C
:1008B00001220C4C1146A36A002023F4803323F05C
:1008C000030343F00203A36200F0A0FEA36A00202A
:1008D00023F4801323F00C0343F00803A36210BD3C
:1008E000D0433E0000800C4013B50122164B1A6421
:1008F00001F02CFD044601A801F000FD0F2C12D9D7
:100900009DF80430022B0ED99DF80520022A01D152
:10091000042B08D00D4AD2F8C03023F0500343F026
:100920001003C2F8C03001F047FD00F01DF802F0DE
:10093000FBF901F02BFDFFF7AFFF01F017FD02B04F
:10094000BDE8104000F004B800000C4000800C40EE
:1009500008B50121034800F0F9FBBDE8084002F0AA
:100960009EB900BF00D204000121014800F0EEBB97
:1009700000D2040008B500F0B9F8124B12498B42BE
:1009800012D30020114B12498B4218D3FFF7F0FB12
:10099000186850F82240586840F8224001329868A0
:1009A0008242F5D30C33EAE70022F8E71C6844F8EA
:1009B000220001325C68A242F8D30833E4E7002247
:1009C000F8E700BF203800002C3800002C38000069
:1009D0002C38000000487047006CDC02254AD36ABE
:1009E00003F47053B3F5805F3AD0B3F5005F04D0E1
:1009F000B3F5006F0BD1204B00E0204B1B681D4A64
:100A00001068C0F382300130B3FBF0F07047D36858
:100A100003F4E063B3F5407F25D008D8B3F5807FB9
:100A20000ED0B3F5007F20D0A3B10023E7E7B3F5E4
:100A3000806F1CD0B3F5A06F114B18BF0023DEE709
:100A4000104B114AD3F8FC10104BB1F1985F28BF3E
:100A50001346D4E70B4B0E4AD3F8FC100D4BF4E7CA
:100A60004FF40043CBE70C4BC9E70C4BC7E70C4BEB
:100A7000C5E700BF00800C404C100020481000204B
:100A8000003FAB010081E00F40B56400C0CF6A00B9
:100A9000804F120040420F00809FD500C0D8A700B1
:100AA000406F400108B5FFF799FF044B5B6803F006
:100AB0000F03D840024B186008BD00BF00800C40F7
:100AC00044100020014B1868704700BF4C100020F4
:100AD000044B1860044BDB6A1B0501D5FFF7E2BF2E
:100AE000704700BF4C10002000800C40014A024BB0
:100AF0009A6070470000000000ED00E0014B1868AC
:100B0000704700BF4810002038B51F4B044698427C
:100B10000D4607D003F58063984203D0A8211B48F7
:100B200002F0D5F8EB683F2B03D9D121174802F02A
:100B3000CEF86B680F2B03D9D221144802F0C7F806
:100B40006B7A2A7A1B0143EA02236A68297843EA0E
:100B500002636A78920742EAC17213432360EB7A18
:100B6000AA7A1B0443EA0273EA6843EA022343F0C9
:100B7000807343F0B003636004F142442B7C04F5BE
:100B800080146401236038BD001000405A35000015
:100B90002DE9F041DD001C4B064698420F46904679
:100BA00017D1022F04D94FF4EA71184802F08FF8D8
:100BB00002F08FF80446336820465D4005F00805D2
:100BC0005D40356048EA072702F087F8F761BDE825
:100BD000F0810F4B9842E4D040F2D1110B4802F063
:100BE00076F8022F04D94FF4EA71084802F06FF842
:100BF00002F06FF80446002EDDD14FF49C710548D9
:100C000002F065F8D7E700BF001000405A35000039
:100C1000001400408A35000010B5431EB3F5004FA4
:100C2000044604D2B4FA84F0C0F11F0010BD40F6AF
:100C30009351034802F04BF8002CF3D12020F3E746
:100C4000DC35000008B5194B5B6903F4E063B3F5CC
:100C5000407F16D00DD8B3F5807F20D0B3F5007F4C
:100C600018D0F3B141F29C61114802F030F8002332
:100C70000EE0B3F5C06F16D0B3F5E06FF2D10D4BB7
:100C800006E001F063FB0C4B0C4A122888BF1346A8
:100C9000184608BD01F05AFB094B0A4AF5E70A4B12
:100CA000F6E70A4BF4E70A4BF2E700BF00800C407E
:100CB0002E360000406F400140420F00804F12006E
:100CC000C0CF6A0040B56400C0D8A700809FD5009F
:100CD000003FAB01034B5A6DD20702D41A6D10428C
:100CE000FCD1704700800C4008B501F037FB4A2862
:100CF00005D0792803D0482818D1104815E01049AC
:100D00000E48D1F8E030D1F8E820D1F8EC101B0201
:100D100003F47C53C1F3031102F0F0020B431343BD
:100D2000084AB3F5017F28BF104608BD064841F2C6
:100D3000186101F0CCFF0020F7E700BF0048E80190
:100D400000FF0FE000366E012E36000010B504469D
:100D5000FFF7CAFFA04207D2FFF7C6FFB4EB400F70
:100D60000ED80122012301E00022134605498B67BA
:100D700005494B6823F4807343EA02234B6010BD9E
:100D80000222EFE70000904300800C40144B5A68A9
:100D90006FF0130302F00702134113F0010F114B20
:100DA00009D1984217D8104B104A034493422CBFE4
:100DB0000023012308E098420FD80B4B0B4A034451
:100DC000934234BF0323022305494A6822F00702F5
:100DD00013434B6070470423F6E70523F4E700BF95
:100DE00000000C400048E801FFDB0BFF0024F4008A
:100DF00038B541F67133064CE56BE363FFF7EAFD66
:100E0000ADB2FFF7C3FF0DB10023E36338BD00BFF0
:100E100000000C4038B541F67133054CE56BE363D7
:100E2000ADB2FFF7B3FF0DB10023E36338BD00BFE0
:100E300000000C4008B5C0F30313013B0C2B5AD83B
:100E4000DFE803F00759590D5959141D47595959ED
:100E500017002A4B1868C0F38230013008BD274BB9
:100E60009B6803F00F0301209840F7E7234B5B6872
:100E7000F7E7224B5B68C3F300230133F3E7204B12
:100E8000984220D00DD81F4B984212D003F58223F0
:100E9000984213D041F62F411B4801F018FF012062
:100EA000DCE71A4B9842F5D1144B9B6E03F0030319
:100EB000D9E7124B9B6EC3F30313D4E70F4B9B6E22
:100EC000C3F30323CFE70D4B9B6EC3F3013304330E
:100ED000C9E70F4B984206D003F50433984205D07A
:100EE00041F64841D8E7054B1B6FDFE7034B1B6F0B
:100EF000C3F30113B7E741F64F41CDE700800C4043
:100F000080002A00801612002E36000080062E0077
:100F100090071A0010B5C0F30313013B0C460C2BCD
:100F200000F20581DFE813F00D0003010301250045
:100F30000301030144006700D10003010301030121
:100F400038004C1E072C04D941F67C41794801F049
:100F5000BEFEFFF74DFF784A136823F4E03343EAFF
:100F600084341460FFF79EFDBDE810400021FFF7B8
:100F700051BF4B1EB3F5007F04D341F68F416D483E
:100F800001F0A5FE2046FFF747FE6B4A936823F069
:100F90000F030343936010BD0846FFF73DFE664A0A
:100FA0000138536823F4807343EA00235360F2E767
:100FB0004B1EB3F5007F04D341F6A5415D4801F017
:100FC00086FEFFF715FFFFF76DFDB0FBF4F0FFF7AE
:100FD000BDFE2046FFF720FE574A536823F00F035B
:100FE00003435360FFF75EFD0021FFF713FFBDE8E9
:100FF0001040FFF7ABBE514B98424FD00DD8504B2D
:10100000984220D003F58223984232D041F6FE4127
:10101000BDE81040474801F05ABE4A4B9842F5D10E
:10102000082904D941F6F041424801F050FE04205D
:10103000FFF750FE2046FFF7EFFD3F4A936E23F087
:101040000303034313E0B1F5004F04D941F6C34154
:10105000384801F03CFE0420FFF73CFE2046FFF735
:10106000DBFD354A936E23F0F00343EA00139366E9
:1010700091E7B1F5004F04D941F6D1412D4801F077
:1010800026FE0420FFF726FE2046FFF7C5FD2A4A6C
:10109000936E23F4706343EA0023E8E7A1F11003A1
:1010A000702B04D94FF4E751224801F010FE0420C0
:1010B000FFF710FE2046FFF7AFFD1F4A0438936E7E
:1010C00023F4405343EA0033D1E71F4B984206D044
:1010D00003F50433984216D041F6245198E70829C5
:1010E00004D941F60751134801F0F1FD4020FFF704
:1010F000F1FD2046FFF790FD0F4A136F23F0030325
:101100000343136747E7082904D941F616510948F4
:1011100001F0DDFD4020FFF7DDFD2046FFF77CFDFF
:10112000054A136F23F0300343EA0013E9E741F661
:101130002A516DE72E36000000800C4080002A0006
:101140008016120080062E0090071A0070B5C0F3BA
:101150000323013B04460E46092B16D8DFE803F0B3
:10116000302C051515272015151CFFF79BFCFFF7E4
:10117000EDFD154DC4F3043405F1424505F5801528
:1011800004EBC504A400266070BD41F6B051BDE873
:1011900070400E4801F09BBD0D4DC0F30434EBE7E9
:1011A000C0F3043410200B4DFFF794FDE4E7C0F3C7
:1011B0000434094D0120F7E7084DC0F30434DBE7A0
:1011C000074DC0F30434D7E740800C402E360000B2
:1011D00078800C4060800C4058800C4044800C406B
:1011E00008800C4008B500F00F00013806284CD8E4
:1011F000DFE800F00414254B4B333B00294BDB6A3E
:1012000003F47053B3F5805F4AD0B3F5005F45D067
:10121000B3F5006F0CBF0420052008BD214B986A70
:1012200000F003000228F8D0032835D0012837D079
:101230009B6A13F4803F0CBF01200A20EDE7194A96
:10124000936A03F00C03082B28D00C2B24D0042B1A
:1012500026D0936A13F4801FEDE7124B1B6813F03E
:10126000805F0CBF07200920D7E70E4BDB6A03F431
:101270006033B3F5803F11D0B3F5003F10D0B3F524
:10128000004F0CBF09200120C7E7074842F2013197
:1012900001F01DFD0020C0E70620BEE70220BCE7EC
:1012A0000320BAE700800C402E36000010B52B4B0F
:1012B0000446984223D02A4B984213D041F613118A
:1012C000284801F004FD2046FFF78CFF044641F654
:1012D0004211244801F0FBFC032C37D8DFE804F06E
:1012E0003B1C2024FFF77EFF1F4A936AC3F3810350
:1012F000013B022B27D8DFE803F00F131700FFF79D
:1013000071FF194A936A03F00303013B022B12D8C1
:10131000DFE803F002060A00BDE8104001F0D1BC8E
:10132000BDE81040FFF7EABBFFF7BCFB0F4B9B6F1C
:101330000133D84010BD936A1022D3400BD0BDE8D2
:10134000104001F0C1BC936A1422F6E741F66D111A
:10135000044801F0BCFC0020ECE700BF02001E00C6
:10136000030020002E36000000800C400000904357
:1013700038B500F47813B3F5E01F054600F0878018
:101380002ED8B3F5801F00F0918018D8B3F5802FC8
:1013900050D006D87BB1B3F5003F53D04FF4F7518E
:1013A0007FE0B3F5602FF9D15048FFF71BFF072806
:1013B0007CD0092873D1BDE83840FFF70FBBB3F5E7
:1013C000B01F43D0B3F5D01F5BD0B3F5901FE5D16C
:1013D0004748FFF76BFF474B9B6EC3F303132FE0A8
:1013E000B3F5281F3AD00DD8B3F5001F47D0B3F599
:1013F000181F5FD0B3F5F01FD0D13D48BDE838408D
:10140000FFF754BFB3F5381F31D0B3F5781F63D061
:10141000B3F5301FC2D13648FFF748FF354A936E07
:10142000C3F30133D840D36F03F007030133B0FB9C
:10143000F3F038BDFFF7D2FA2E4B9B6803F00F0391
:10144000D840F6E7BDE83840FFF72CBB2848FFF747
:101450002DFF284B9B6EC3F30323F1E72448FFF7CE
:1014600025FF244B9B6EC3F301330433E8E7204888
:10147000FFF71CFF1F4B9B6E03F00303E0E71E48C2
:10148000BCE71D48FFF712FF1A4B1B6FF4E71A4821
:10149000FFF70CFF174B1B6FC3F30113D0E741F2AB
:1014A000D661164801F013FC0020C2E7BDE83840C1
:1014B000FFF7C8BB1248FFF795FE032808D009289C
:1014C0003FF479AF0228EFD1BDE83840FFF716BBF3
:1014D000BDE8384001F0F5BBFFF7E4FA04462846C2
:1014E000FFF7A8FCB4FBF0F0A3E700BF06000E0076
:1014F00002001E0000800C40030020002E36000079
:101500000723260010B504461120FFF76BFE0428C0
:1015100004D142F673210C4801F0D9FB08230B4A91
:1015200013621368E17823F4D16323F007030B43BC
:10153000617843EA4123217843EA8103A17843EAB1
:10154000C113136010BD00BF2E36000000800C4098
:1015500010B58028044604D942F60D31074801F041
:10156000B6FB074A936D1B0706D4D36F04F007043C
:1015700023F007032343D36710BD00BF2E360000BE
:1015800000800C4070B505461120FFF72BFE0228A5
:1015900004D142F62B31144801F099FB4FF400734B
:1015A000124E3362AC786B78E40244EA83442B78C1
:1015B000C3F3400344EA433401F08BFB33685C40DF
:1015C00024F07F4424F4730424F4474424F0FF04FB
:1015D0005C40346001F081FB2B78054A03F0010385
:1015E000C2F8A03470BD00BF2E36000000800C4051
:1015F00000008C43014B1880704700BF5210002040
:10160000014B1880704700BF5010002030B40428F0
:101610000BD80E4B1C5C0E4B33F810500D4B33F8AF
:1016200010000D4B39B918620DE042F6F93130BCAB
:101630000A4801F04CBB1D622AB1094B23449B00B0
:101640001A68002AFCD030BC704700BF7236000018
:10165000683600005E36000000800C402E36000028
:101660006001E41008B5FFF73FFB0130FFF76EFBA8
:10167000FFF728FA104A114B984213684FF0020006
:1016800096BF23F0600343F0600343F02003136030
:1016900001221146FFF7BAFFFFF7AAFB0222064B11
:1016A0005A62FFF7FFF9FFF751FBFFF7FBF9BDE8BF
:1016B00008400021FFF7AEBB00800C400048E80165
:1016C00010B500F00F04631E062B00F2CD80DFE89A
:1016D00003F0044E4ECBCB91A300023908293DD82C
:1016E000DFE801F03F42052E3C3C3C3C3500FFF773
:1016F000FBFA0130FFF72AFBFFF7E4F95C4B5D4A88
:101700009842136817D943F060030220044613601F
:1017100001221146FFF77AFFFFF76AFB554B5C6227
:10172000FFF7C0F90446FFF711FB2046BDE8104063
:101730000021FFF76FBB23F0600343F02003E4E7D1
:10174000FFF7D2FA0130FFF701FB0320E0E742F296
:101750002F51BDE81040484801F0B9BA42F2345167
:10176000F7E700200424D3E701200324D0E7013960
:1017700009292DD8DFE801F02F05192C2C212C2C5C
:101780002C32012200201146FFF740FF00230221E6
:101790003848022C826A23D122F4803222F00302DC
:1017A0000A4342EA0342826210BD012211461046FA
:1017B000FFF72CFF00230121EAE7FFF773F9FFF79A
:1017C000C5FA01222D4B0321C3F810280023DFE7BF
:1017D00042F2DD51BDE700230021D9E70123FBE7F9
:1017E0001B0522F4801243EA810322F00C0213430A
:1017F0008362D9E7072904D0092908D042F2386169
:10180000A7E71C4A136823F080531360CCE7194AFA
:10181000136843F08053F8E703290FD0092919D042
:1018200002291ED1012200201146FFF7EFFE4022BF
:10183000104B5A62DA6AD003FCD5B5E70122114693
:101840001046FFF7E3FE60220A4B5A62DA6A910300
:10185000FCD5A9E72022074B5A62DA6A1204FCD5AC
:10186000A2E742F2776174E742F26D7171E700BF5F
:101870000048E80100800C402E3600000000904334
:1018800010B504798378094923430478CA6A43EA86
:101890000443C478407822F4803243EA440322F0BF
:1018A0001F0243EA00131343CB6210BD00600C40DB
:1018B00038B5052804460D4605D80A4B33F81030D4
:1018C000CB40DB0704D44FF48661074801F0FFF9F1
:1018D00024220123544304F18044AB4004F5C04466
:1018E000236138BDFA3600007736000038B5052888
:1018F00004460D4605D80A4B33F81030CB40DB07C1
:1019000004D440F20141074801F0E1F92422012307
:10191000544304F18044AB4004F5C044636138BDD6
:10192000FA3600007736000038B5052804460D4623
:1019300001D8032903D96821074801F0C8F92423F5
:1019400003FB04F000F1804000F5C040036823F081
:1019500003032B43036038BDCA360000F8B50528E1
:1019600005460C4616461F4605D81C4B33F810306A
:10197000CB40DB0704D44FF4B071194801F0A7F94C
:1019800026B121462846C7B1FFF792FF2423072C32
:101990004FF00F0105FB03F312D8A00006FA00F286
:1019A00081401048184401F0A4F9AEB921462846F8
:1019B00077B1BDE8F840FFF77BBFFFF797FFE5E79A
:1019C000A4F10800800006FA00F281400648E9E729
:1019D000BDE8F840FFF78ABFF8BD00BFFA36000047
:1019E000CA360000046000400860004070B51F293E
:1019F00005460C46164603D99121064801F067F9C1
:101A000005F1424000F5801004EBC004A4002660FC
:101A100070BD00BF8A35000070B5114D04466E6878
:101A200018B946210F4801F052F92B68E26823F0FB
:101A300001032B606368134326F4830222F01F0224
:101A40001343227A1343627A1A43238A13436B6047
:101A500023781BB12B6843F001032B6070BD00BFDE
:101A600000A0084006370000054AB0F5803F5368E3
:101A700023F4803308BF43F480335360704700BFC2
:101A800000A00840044B9A6811B102439A60704765
:101A900022EA0002FAE700BF00A0084037B5072895
:101AA00005460C4613DD40F22721374801F00FF9B7
:101AB000272C04DD40F22E21334801F008F94FF4C1
:101AC0002671314803B0BDE8304001F000B9272944
:101AD0000EDD40F22E212C48019201F0F8F8019A17
:101AE000072DECD8DFE805F0141C242C343C444CC2
:101AF0000728E4D8DFE800F0041018202830384028
:101B00001F2905DC214803B0BDE83040FFF76EBF58
:101B10001F48A4F12001F6E71F2901DC1D48F2E768
:101B20001D48A4F12001EEE71F2901DC1B48EAE76C
:101B30001B48A4F12001E6E71F2901DC1948E2E770
:101B40001948A4F12001DEE71F2901DC1748DAE774
:101B50001748A4F12001D6E71F2901DC1548D2E778
:101B60001548A4F12001CEE71F2901DC1348CAE77C
:101B70001348A4F12001C6E71F2901DC1148C2E780
:101B80001148A4F12001BEE70637000040A008403C
:101B900050A0084044A0084054A0084048A0084075
:101BA00058A008404CA008405CA00840CCA00840C9
:101BB000B4A00840D0A00840B8A00840D4A0084075
:101BC000BCA00840D8A00840C0A0084008B507281D
:101BD0000BDD40F20331294801F079F8BDE80840F7
:101BE00040F24331254801F072B80728F6D8DFE803
:101BF00000F0040B12192029323B214B186C424093
:101C00000A4042401A6408BD1D4B586C42400A40CD
:101C100042405A64F7E71A4B986C42400A404240EF
:101C20009A64F0E7164BD86C42400A404240DA64AE
:101C3000E9E7134BD3F8CC0042400A404240C3F8D6
:101C4000CC20E0E70E4BD3F8D00042400A4042409F
:101C5000C3F8D020D7E70A4BD3F8D40042400A405B
:101C60004240C3F8D420CEE7054BD3F8D800424019
:101C70000A404240C3F8D820C5E700BF063700003D
:101C800000A00840072804DD4FF45771254801F0F3
:101C90001EB8072844D8DFE800F0040B12192029E9
:101CA000323B214B186D42400A4042401A65704752
:101CB0001D4B586D42400A4042405A6570471A4BCE
:101CC000986D42400A4042409A657047164BD86D65
:101CD00042400A404240DA657047134BD3F8B400E3
:101CE00042400A404240C3F8B42070470E4BD3F83C
:101CF000B80042400A404240C3F8B82070470A4B3F
:101D0000D3F8BC0042400A404240C3F8BC207047B0
:101D1000054BD3F8C00042400A404240C3F8C020FF
:101D2000704700BF0637000000A00840034A536810
:101D300023F4E01303435360704700BF00A0084042
:101D400070B51F2905460C46164603D99121064851
:101D500000F0BDFF05F1424000F5801004EBC00427
:101D6000A400266070BD00BF8A3500002DE9F04157
:101D70000F46044618B91F48FFF7FAFA04466FF0F9
:101D80007E439C4204D34FF4A8711B4800F09FFF90
:101D90000FB1BC4204D240F25311174800F097FF34
:101DA0004FF001080026434607FB08F5B4FBF5F5A4
:101DB000402D01D9072E18D16F1EFF2F04D94FF4E3
:101DC000B0710D4800F083FF0C4A08FB05F0536822
:101DD000B4FBF0F023F47F2323F4E06343EA06230B
:101DE00043EA07335360BDE8F081013603FA06F891
:101DF000DAE700BF80062E003537000000C008403B
:101E000010B50328044604D940F2E511054800F056
:101E10005EFF054A536823F4400343EA845353604A
:101E200010BD00BF3537000000C0084010B50C469B
:101E300078B1012815D1032904D94FF40E710C484B
:101E400000F045FF0B4A536823F003031C43546022
:101E500010BD084A536823F0700343EA011353602E
:101E6000F6E74FF41471BDE81040014800F02FBFB1
:101E70003537000000C00840F8B53F2905460E463A
:101E800017461C4604D940F2D6310D4800F01FFF1A
:101E90007F2C04D940F2D731094800F018FF3B06E7
:101EA00004D540F2DA31064800F011FF6403054B17
:101EB00044EA87122C3532432D015A51F8BD00BF38
:101EC0003537000000C0084070B5B1F5805F0446AA
:101ED0000D46164604D340F22641104800F0F7FEA6
:101EE0000F2C04D94FF485610C4800F0F0FE20015E
:101EF00000F1804202F50C22D2F8C43223F47F6351
:101F000023F00F031D43C2F8C452D2F8C8321B0C91
:101F10001B041E43C2F8C86270BD00BF3537000005
:101F2000F8B50F2904460D4604D940F2A9214A48C4
:101F300000F0CDFEE37B3F2B04D940F2AA214648B6
:101F400000F0C5FE638A7F2B04D940F2AB214248E2
:101F500000F0BDFE94F91030002B04DA40F2B121FC
:101F60003D4800F0B4FEA38AB3F5805F04D340F28D
:101F7000B721394800F0ABFE6368B3F5C03F09D123
:101F80004FF20F032B41DB0704D440F2B921324852
:101F900000F09DFE237A032B08D1A5F10C03032B3F
:101FA0004ED840F2C2212C4800F091FE03232B4E64
:101FB0006900B26B8B4022EA0302237AEFB28B40B6
:101FC0001343B3633846638A227CE17BFFF754FFF7
:101FD000A37B627B9B0443EA42436268218B1343E9
:101FE000E28A38460A4392B21343627AA18A43EAEC
:101FF000C24305F12C0206EB02125360237BA27A46
:102000009B0443EA4243E26906EB05161343E27A76
:1020100043EAC243C6F8C832628BFFF755FF294630
:10202000A2780F48FFF78CFE294662780D48FFF72B
:1020300087FE294622780C48BDE8F840FFF780BEAD
:1020400040F2BD21044800F042FE237A032BADD1BB
:10205000032DABD9A5E700BF3537000000C008400D
:102060004CC0084054C0084018C0084010B50F28A4
:10207000044604D940F2C651034800F028FE034B41
:1020800004F00F041C6310BD3537000000C0084089
:10209000044B1A6D9106FCD401225A611A6D920606
:1020A000FCD4704700C00840044A136823F00303BF
:1020B0001843106009B1FFF7EBBF704700C008403C
:1020C000044B1A6D9106FCD402225A611A6D9206D5
:1020D000FCD4704700C00840044B1A6D9106FCD434
:1020E00008225A611A6D9206FCD4704700C008405D
:1020F00030B500231D4AD3641D4B5364D36843F0AD
:102100000103D360136D13F02003FBD10A211C4699
:10211000516113609360D360136193619363D363E0
:10212000536353651A46114D110101F1804001328C
:1021300000F50C202944102AC0F8C042C0F8C4425F
:10214000C1F8C842F0D10021DA0002F18042013327
:1021500002F50C22102BC2F80012C2F80412F3D1BF
:10216000024A136D9B06FCD430BD00BF00C008407E
:10217000FFFF7F0038B5037D0446032B0D4603D9CE
:102180007821424800F0A3FDA37F1F2B03D97A21B9
:102190003E4800F09CFD0DB1FFF7AAFF207DFFF740
:1021A0002FFED4E902321343A278394D13436278EB
:1021B000002143EA8203E27843EA4223227943EA98
:1021C0008223627943EA4233A27943EA4243E279C5
:1021D00043EA0243627C43EA82532B602078FFF794
:1021E00063FFA26A236A1343227E1343E27E43EA1B
:1021F0004203627E43EA8203A27E43EA8213227F85
:1022000043EA0213627F43EA0223A27F43EA822366
:1022100094F8242043EA025394F8252043EA825399
:10222000AB6094F83C3094F83B209B0343EA822354
:10223000A28D134394F83D2043EA824394F83E2054
:1022400043EA825394F8342043EA420394F8352059
:1022500043EA820394F8362043EAC20394F8372015
:1022600043EA021394F8382043EA421394F83920E1
:1022700043EA821394F83A2043EAC213EB60206BDE
:10228000FFF7F4FE237C2B6138BD00BF353700001B
:1022900000C0084038B5012805460C460CD9A421D9
:1022A0000C4800F014FDB4F1807F12D3BDE8384033
:1022B000A921084800F00BBDB1F1807F03D3A9210B
:1022C000044800F004FD044B044A012D18BF1346D6
:1022D0001C6038BD683700000C000840080008404A
:1022E000427803780AB143F0020382780AB143F0DE
:1022F0000403014A136070470000084010B504460B
:1023000018B957210F4800F0E2FC0F4AD2F8E43028
:10231000D2F8E0109B0003F03C03C1F381110B43A2
:10232000A370D2F8E03003F03F036370D2F8E830D6
:10233000D2F8EC2003F0F003C2F30312134323702E
:1023400010BD00BF9737000000FF0FE0024BD3F82D
:10235000FC00000E704700BF0081E00F024BD3F875
:10236000FC00C0F3074070470081E00F07B5064B43
:1023700018681B79009068468DF80430FFF780FAE2
:10238000002003B05DF804FBC937000007B5084B17
:10239000186801900748FEF79BFB01A8FFF7B2F809
:1023A0003220FFF72DF9002003B05DF804FB00BFD9
:1023B000CE370000006CDC0210B56FF00403A021E2
:1023C0000A480B4C13F0800F03F1010207D123449C
:1023D000272A83F800131346F4D1002010BD03F020
:1023E0000F03043B034419761346EBE700ED00E0CE
:1023F00000E100E030B50E4C416123688BB92060EC
:1024000083600DE0891A9A681D4641616AB11346DE
:102410005A698A42F6D935B1A860521A83605A6166
:1024200030BD0025F4E72060F7E798608260F7E7A9
:10243000D810002038B500F077F90025084B094C7A
:102440001A682368C31A2AB123B15169994203D388
:10245000C91A5161206038BD55615B1A9268F2E774
:10246000D8100020D410002038B5134D2B685B69BC
:1024700093B1124A022014681C4400F067F9204608
:1024800000F092F900230E492A680B70D08880076B
:1024900009D501230B7038BD022000F057F9022046
:1024A00000F0B8F9EEE79268002AF4D050690344CE
:1024B000012BEBD9EFE700BFD8100020D41000208B
:1024C000FE10002000220C490B687BB183420AD128
:1024D00083687AB1936083681BB15A6941690A4481
:1024E0005A61002070471A469B68EEE70028EFD03B
:1024F000022070470B60EEE7D810002070B500F0A6
:10250000EFFB144E05463478FCB9134B1C60134B9B
:102510001C60134B1C8000F0D5F8012000F016F968
:1025200000F080F90F4B0246186020B9284600F0F1
:10253000DDFB232070BD234640F2E7310A4800F05E
:10254000B9F90A4B186001233370284600F0CEFB1E
:102550000020EFE7FF100020D8100020D41000204A
:10256000F0100020DC10002018FCFFFFD01000202D
:102570002DE9F843C20704460BD54E4A13880133B0
:102580009BB21380FFF756FF4B4B1B680BB1FFF755
:102590006BFFA30740F18B8000F0A2FB4FF0000817
:1025A00005464646FFF746FF434F3C680CB163695A
:1025B0008BB10022414B012E1A7003D118F0020F8B
:1025C00018BF1E70002C6ED0FFF74EFF2846BDE8E6
:1025D000F84300F08BBB23465A693AB91A7921793E
:1025E000914288BF1C469B68002BF5D1284600F01D
:1025F0007DFB2569DDB100F097F8A269A0EB020828
:102600004FEAE873A84573F1000311DB2369134413
:10261000A361E368B4F80680013613B1204621684F
:10262000984700F05DFB0546FFF704FFBDE7A846AD
:1026300000F056FB81462046FFF744FF484600F075
:1026400055FB2369002BE4D0B5EB08054FEAE8738E
:1026500063EB4303012D73F1000304DA40F22A51C6
:10266000174800F034FBA38B33B1E28B13449BB2C9
:10267000B3F57A7F0FD2E38300F032FB8046294620
:102680002046FFF7B7FEA369226940461344A361C1
:1026900000F02CFBBDE7A3F57A73E383A369013D4A
:1026A000013BA361E8E7022000F068F88EE7BDE88F
:1026B000F88300BFF0100020D8100020FD1000208B
:1026C000D237000013B5144B144C1A889B7820465F
:1026D0000121ADF804208DF80630FEF71BFC012126
:1026E0002046FEF733FD0024012301A88DF80430B5
:1026F0008DF80640FFF7F4FD094BDA6922F0070276
:10270000DA6107229A614FF080425C60054BC3F8A2
:1027100080211A6002B010BD15380000801612002A
:102720000000084000E100E0064A074B50681B78B3
:102730001169DBB2C90744BF5068013340EA036046
:10274000704700BF000008400011002010F0020F89
:10275000084A00F0010308D00749087818B104209E
:1027600090610020087043F00403D1690B43D361EA
:10277000704700BF0000084055100020820744BF8A
:102780000121074A00F0010348BF1170054948BF05
:1027900043F00403CA6922EA0303CB61704700BF18
:1027A000551000200000084038B5044600F091FAAA
:1027B0000546FFF7B9FF154A0346126912F0040FE8
:1027C000134A06D11168091A032902D811688142F7
:1027D00013D1E11A022998BFDC1C013C1460116876
:1027E000CB1AB3F1807F0DD21168012021F07F4117
:1027F000FFF750FD0220FFF7A9FF2846BDE838404B
:1028000000F06BBA0220FFF7B9FFF6E700000840BE
:10281000E0100020830742BF0422014B5A61704739
:10282000000008400148FEF7A3BD00BF801612005B
:10283000F8B500F055FA1C4B06461D6915F0010469
:1028400005F0040705F0050506D1FFB99D61304686
:10285000BDE8F84000F04ABA144A14781378240608
:102860000133DBB21370124B19681378A1EB0361CB
:10287000B1F1807F05D20120FFF70CFD0220FFF7A8
:1028800065FF57B104F180735C425C41064B44F034
:1028900002009D61FFF76CFED9E7034BB4F17F4F57
:1028A0009D61D4D10120F5E700000840001100200F
:1028B000E010002053B94AB9002908BF00281CBF06
:1028C0004FF0FF314FF0FF3000F06CB9ADF1080C64
:1028D0006DE904CE00F006F8DDF804E0DDE902233E
:1028E00004B070472DE9F047089D0C46002B4ED1EF
:1028F00096468E458446B2FA82F262D94AB1C2F156
:102900002003914020FA03F30EFA02FE194300FA65
:1029100002FC4FEA1E47B1FBF7F407FB14111FFA44
:102920008EF64FEA1C4343EA014304FB06F1994249
:102930000AD91EEB030304F1FF3080F011819942A4
:1029400040F20E81023C7344591AB1FBF7F007FBC9
:10295000101100FB06F61FFA8CF343EA01439E4276
:102960000AD91EEB030300F1FF3180F0FB809E4289
:1029700040F2F8807344023800219B1B40EA044077
:102980001DB1D3400022C5E90032BDE8F0878B427B
:1029900005D90DB1C5E9000100210846F5E7B3FAF4
:1029A00083F1002946D1A34202D39042C0F0F380C4
:1029B000861A64EB03030120002DE6D0C5E900630D
:1029C000E3E7002A40F09080A1EB0E0401214FEADA
:1029D0001E471FFA8EF6B4FBF7F007FB10444FEAD0
:1029E0001C4343EA044306FB00F49C4208D91EEB57
:1029F000030300F1FF3802D29C4200F2C980404636
:102A00001C1B1FFA8CF3B4FBF7FC07FB1C4406FBF2
:102A10000CF643EA04439E4208D91EEB03030CF173
:102A2000FF3402D29E4200F2AF80A4469B1B4CEAC8
:102A30000040A5E7C1F120068B4022FA06FC4CEAD3
:102A4000030C24FA06F74FEA1C49B7FBF9F81FFA02
:102A50008CFE09FB187720FA06F38C4000FA01FA85
:102A600008FB0EF01C43230C43EA0743984202FA8A
:102A700001F20AD91CEB030308F1FF3780F08280D2
:102A800098427FD9A8F1020863441F1AB7FBF9F3F3
:102A900009FB137703FB0EFEA4B244EA0744A645E4
:102AA00008D91CEB040403F1FF3067D2A64565D9B1
:102AB000023B644443EA0840A0FB0283A4EB0E04FB
:102AC0009C42C6461F4651D34ED0002D67D0BAEB6C
:102AD0000E0364EB070424FA01F2CB40B4401C431C
:102AE0000021C5E9004250E70EFA02FEC2F12003C0
:102AF000D9404FEA1E4720FA03F300FA02FCB1FB6B
:102B0000F7F007FB101194401C431FFA8EF6230CBC
:102B100043EA014300FB06F1994208D91EEB030387
:102B200000F1FF382CD299422AD9023873445B1A3B
:102B3000B3FBF7F107FB1133A4B244EA034401FBF2
:102B400006F3A34208D91EEB040401F1FF3813D2A7
:102B5000A34211D902397444E41A41EA00413AE728
:102B60000446F1E6084607E7C245AED2B8EB020ECE
:102B700063EB0C070138A8E74146EDE7034699E708
:102B80004046D4E7B84680E77344ACF1020C4DE709
:102B90000238734434E70646234608460CE72946C4
:102BA000F3E600BF704700BF08B5064B044613B1FB
:102BB0000021AFF30080044B1B6803B19847204607
:102BC00000F086F800000000E410002070B5002638
:102BD0000C4D0D4C641BA410A64209D100F0E0F886
:102BE00000260A4D0A4C641BA410A64205D170BDF4
:102BF00055F8043B98470136EEE755F8043B9847F3
:102C00000136F2E75810002058100020581000201C
:102C10005C10002008B50020FDF79CFDBDE80840D1
:102C2000002000F01FB810B500210220FEF77CFE46
:102C3000002308211A460220FEF790FE00230921F6
:102C40001A460220FEF78AFE00230A211A460220B5
:102C5000FEF784FEBDE8104000230B211A46022037
:102C6000FEF77CBE38B5054600F03AF80446FDF79D
:102C70001DFBFFF7D8FFFDF757FB2846FDF774FB58
:102C80002046BDE8384000F031B808B500F05DF8E6
:102C9000FFF7C0FF00F066F8FDF7A4FAFAE7704707
:102CA000704708B500F00AF8BDE80840FFF726BCF9
:102CB0007047704770477047704770470F207047E4
:102CC000FEE74FF4004070474FF47A707047FEE71C
:102CD000FEE7EFF3108072B6704700B962B6704736
:102CE000EFF31180602383F31188704780F311881C
:102CF000704770B5054614460E46FFF7EAFF2B688D
:102D00005C4034405C402C60BDE87040FFF7E5BF9C
:102D100038B500240546214605EB44100134FFF781
:102D2000FFF8102CF7D138BD13B54FF440730024D1
:102D300001A8ADF804308DF80640FEF723FC3220E0
:102D4000FEF758FC204602B010BD08B5FDF7CCFDDB
:102D5000FFF7A6FFFFF7A5FFFFF7AAFFBDE80840B2
:102D6000FFF7A7BF08B5FFF7A5FFFFF7A4FFFFF721
:102D7000A3FFBDE80840FFF7A0BF0346024493420B
:102D800000D1704703F8011BF9E7034613F8012B44
:102D9000002AFBD1181A013870470000000000001B
:102DA000F8B500BFF8BC08BC9E467047F8B500BF38
:102DB000F8BC08BC9E467047000000000000000000
:102DC0000000000000000000000000000000000003
:102DD00000000000000000000000000000000000F3
:102DE000414C4C495453442042452041204E4548D3
:102DF000455A5345474920535A494E5445540000BB
:102E000000000000000000000000000000000000C2
:102E100000000000000000000000000000000000B2
:102E200000000000000000000000000000000000A2
:102E30000000000000000000000000000000000092
:102E40000000000000000000000000000000000082
:102E50000000000000000000000000000000000072
:102E60000000000000000000000000000000000062
:102E70000000000000000000000000000000000052
:102E80000000000000000000000000000000000042
:102E90000000000000000000000000000000000032
:102EA0000000000000000000000000000000000022
:102EB0000000000000000000000000000000000012
:102EC0000000000000000000000000000000000002
:102ED00000000000000000000000000000000000F2
:102EE00000000000000000000000000000000000E2
:102EF00000000000000000000000000000000000D2
:102F000001010000000000000000000001000000BE
:102F10000F0000003700000000200000000000004B
:102F2000010100000000000000000000010000009E
:102F30000F0000003700000000200000000000002B
:102F4000010100000000000000000000010000007E
:102F50000F0000003700000000200000000000000B
:102F6000010100000000000000000000010000005E
:102F70000F000000370000000020000000000000EB
:102F80000000000000000000000000000000000041
:102F90000000000000000000000000000000000031
:102FA0000000000000000000000000000000000021
:102FB0000000000000000000000000000000000011
:102FC0000000000000000000000000000000000001
:102FD00000000000000000000000000000000000F1
:102FE00000000000000000000000000000000000E1
:102FF00000000000000000000000000000000000D1
:1030000000000000000000000000000000000000C0
:1030100000000000000000000000000000000000B0
:1030200000000000000000000000000000000000A0
:103030000000000000000000000000000000000090
:103040000000000000000000000000000000000080
:103050000000000000000000000000000000000070
:103060000000000000000000000000000000000060
:103070000000000000000000000000000000000050
:103080000000000000000000000000000000000040
:103090000000000000000000000000000000000030
:1030A0000000000000000000000000000000000020
:1030B0000000000000000000000000000000000010
:1030C0000000000000000000000000000000000000
:1030D00000000000000000000000000000000000F0
:1030E00000000000000000000000000000000000E0
:1030F00000000000000000000000000000000000D0
:1031000001010100000000000000000001000000BB
:10311000010000003700000000200E000000000049
:10312000010101000000000000000000010000009B
:10313000010000003700000000200E000000000029
:10314000010101000000000000000000010000007B
:10315000010000003700000000200E000000000009
:10316000010101000000000000000000010000005B
:10317000010000003700000000200E0000000000E9
:10318000000000000000000000000000000000003F
:10319000000000000000000000000000000000002F
:1031A000000000000000000000000000000000001F
:1031B000000000000000000000000000000000000F
:1031C00000000000000000000000000000000000FF
:1031D00000000000000000000000000000000000EF
:1031E00000000000000000000000000000000000DF
:1031F00000000000000000000000000000000000CF
:1032000000000000000000010000000000000000BD
:1032100000000000000000000000000000000000AE
:103220000000040002020000000000000000000096
:103230000000000000010000000001000102030086
:103240000000000007000000070700003D0000002C
:10325000000000000000000000000000010101016A
:1032600000000000FF000000FF000000FF00000061
:10327000FF000000FF000000FF0000000000000051
:10328000090000000A0000000B0000000C00000014
:1032900001000000030040000C00000000000000DE
:1032A0000000000000000011800200000000020683
:1032B0000000200039000F000000401500204004ED
:1032C000001000223F0006005B044F0466046D04FA
:1032D0007D0407007F046F0400000000000A000066
:1032E00080200000FFFF7704790A3900B0207900C0
:1032F00071007D04760406000E00700A3800B602E4
:10330000B6083F0073043F08730C6D0401113E00C2
:1033100030223628802A6E040922390080080F00E6
:1033200001000800000158107C0458005E04582079
:1033300071040C0C740404000E00700C380054145A
:1033400054045C04730467045004080C78001C00E7
:1033500010201428802A0C084820000001010507CD
:10336000070304020302040605060D0E0E0E0D0DE2
:103370000D0D0E0E0E0E0D0D0101050707030402C3
:103380000302040605060F1010100F0F0F0F101088
:1033900010100F0F010105070703040203020406C2
:1033A000050611121212111111111212121211111D
:1033B0000101050707030402030204060506131CA6
:1033C0001C1C131313131C1C1C1C131300010507D6
:1033D000060203010302040604051D1E1E1E1D1D18
:1033E0001D1D1E1E1E1E1D1D0001050706020301D8
:1033F0000302040604051F2020201F1F1F1F20207A
:1034000020201F1F01010507070304020302040611
:1034100005062122222221212121222222222121CC
:10342000070502010306042323232323232307057F
:103430000201030604242424242424240705020171
:103440000306042525252525252507050201030654
:1034500004262626262626260001070206272727D9
:1034600027270000000000000000131211100F0EAB
:103470000D0C000000002125242601010304040294
:1034800003020D0E0D0D0E0D0E0E010103040402BC
:1034900003020F100F0F100F10100101030404029C
:1034A000030211121111121112120101030404027C
:1034B0000302131C13131C131C1C00010203040140
:1034C00003021D1E1D1D1E1D1E1E00010203040100
:1034D00003021F201F1F201F2020010103040402DC
:1034E00003022122212122212222050707040406AA
:1034F00005060E0E0D0D0E0E0D0D05070704040634
:10350000050610100F0F10100F0F05070704040613
:1035100005061212111112121111050707040406F3
:1035200005061C1C13131C1C1313050706030406B5
:1035300004051E1E1D1D1E1E1D1D05070603040677
:10354000040520201F1F20201F1F05070704040655
:10355000050622222121222221212E2E2F6765639A
:103560006B6F5F73646B5F342E342E362F706C611B
:1035700074666F726D2F656D6C69622F7372632F45
:10358000656D5F61636D702E6300433A5C626561D7
:103590006779737A6F6674766572323032355C683B
:1035A000617A6966656C616461746B6F7A6F735C74
:1035B0006765636B6F5F73646B5F342E342E365CAC
:1035C000706C6174666F726D5C656D6C69625C696C
:1035D0006E632F656D5F6275732E6800433A5C629F
:1035E00065616779737A6F667476657232303235E9
:1035F0005C68617A6966656C616461746B6F7A6F2F
:10360000735C6765636B6F5F73646B5F342E342E1E
:10361000365C706C6174666F726D5C656D6C69624E
:103620005C696E632F656D5F636D752E68002E2E6D
:103630002F6765636B6F5F73646B5F342E342E3658
:103640002F706C6174666F726D2F656D6C69622F7F
:103650007372632F656D5F636D752E6300000002EA
:10366000800008000200200000014000040001006A
:1036700010000907030105433A5C626561677973CD
:103680007A6F6674766572323032355C68617A6959
:1036900066656C616461746B6F7A6F735C67656398
:1036A0006B6F5F73646B5F342E342E365C706C61AD
:1036B00074666F726D5C656D6C69625C696E632FB8
:1036C000656D5F6770696F2E68002E2E2F676563CA
:1036D0006B6F5F73646B5F342E342E362F706C61AA
:1036E00074666F726D2F656D6C69622F7372632FD4
:1036F000656D5F6770696F2E6300FFFFFFFFFFFF5F
:10370000FFFFFFFFFF1F2E2E2F6765636B6F5F7339
:10371000646B5F342E342E362F706C6174666F725A
:103720006D2F656D6C69622F7372632F656D5F6CB1
:1037300063642E63002E2E2F6765636B6F5F736467
:103740006B5F342E342E362F706C6174666F726D21
:103750002F656D6C69622F7372632F656D5F6C6589
:1037600073656E73652E63002E2E2F6765636B6F16
:103770005F73646B5F342E342E362F706C61746609
:103780006F726D2F656D6C69622F7372632F656D3B
:103790005F7274632E63002E2E2F6765636B6F5FFD
:1037A00073646B5F342E342E362F706C6174666FC9
:1037B000726D2F656D6C69622F7372632F656D5F1B
:1037C00073797374656D2E630000000001010303BB
:1037D00000002E2E2F6765636B6F5F73646B5F3421
:1037E0002E342E362F706C6174666F726D2F736578
:1037F00072766963652F736C65657074696D657247
:103800002F7372632F736C5F736C65657074696D71
:0838100065722E630001000146
:0838180050C9FF7F0100000010
:0C3820002C3800000010002018000000F0
:10382C00FFFFFFFF0100000001000000010000008D
:10383C000100000001000000010000000100000078
:10384C000100000001000000010000000100000068
:10385C000100000001000000010000000100000058
:10386C0001000000809FD50000800000006CDC028D
:10387C00FFFFFFFF01010000450100001D010000DA
:04000003000009757B
:00000001FF
